{
  "_format": "hh-sol-artifact-1",
  "contractName": "SmartWallet",
  "sourceName": "contracts/SmartWallet.sol",
  "abi": [
    {
      "inputs": [
        {
          "internalType": "address[]",
          "name": "_guardians",
          "type": "address[]"
        },
        {
          "internalType": "uint256",
          "name": "_requiredVotes",
          "type": "uint256"
        }
      ],
      "stateMutability": "nonpayable",
      "type": "constructor"
    },
    {
      "anonymous": false,
      "inputs": [
        {
          "indexed": true,
          "internalType": "address",
          "name": "from",
          "type": "address"
        },
        {
          "indexed": false,
          "internalType": "uint256",
          "name": "amount",
          "type": "uint256"
        }
      ],
      "name": "Deposit",
      "type": "event"
    },
    {
      "anonymous": false,
      "inputs": [
        {
          "indexed": true,
          "internalType": "uint256",
          "name": "round",
          "type": "uint256"
        }
      ],
      "name": "RecoveryCancelled",
      "type": "event"
    },
    {
      "anonymous": false,
      "inputs": [
        {
          "indexed": true,
          "internalType": "address",
          "name": "by",
          "type": "address"
        },
        {
          "indexed": false,
          "internalType": "address",
          "name": "oldOwner",
          "type": "address"
        },
        {
          "indexed": false,
          "internalType": "address",
          "name": "newOwner",
          "type": "address"
        },
        {
          "indexed": true,
          "internalType": "uint256",
          "name": "round",
          "type": "uint256"
        }
      ],
      "name": "RecoveryExecuted",
      "type": "event"
    },
    {
      "anonymous": false,
      "inputs": [
        {
          "indexed": true,
          "internalType": "address",
          "name": "by",
          "type": "address"
        },
        {
          "indexed": false,
          "internalType": "address",
          "name": "candidate",
          "type": "address"
        },
        {
          "indexed": true,
          "internalType": "uint256",
          "name": "round",
          "type": "uint256"
        }
      ],
      "name": "RecoveryInitiated",
      "type": "event"
    },
    {
      "anonymous": false,
      "inputs": [
        {
          "indexed": true,
          "internalType": "address",
          "name": "by",
          "type": "address"
        },
        {
          "indexed": false,
          "internalType": "address",
          "name": "candidate",
          "type": "address"
        },
        {
          "indexed": true,
          "internalType": "uint256",
          "name": "round",
          "type": "uint256"
        }
      ],
      "name": "RecoverySupported",
      "type": "event"
    },
    {
      "anonymous": false,
      "inputs": [
        {
          "indexed": true,
          "internalType": "address",
          "name": "to",
          "type": "address"
        },
        {
          "indexed": false,
          "internalType": "uint256",
          "name": "amount",
          "type": "uint256"
        }
      ],
      "name": "Transfer",
      "type": "event"
    },
    {
      "inputs": [
        {
          "internalType": "address",
          "name": "_guardian",
          "type": "address"
        }
      ],
      "name": "addGuardian",
      "outputs": [
        {
          "internalType": "bool",
          "name": "",
          "type": "bool"
        }
      ],
      "stateMutability": "nonpayable",
      "type": "function"
    },
    {
      "inputs": [],
      "name": "cancelRecovery",
      "outputs": [
        {
          "internalType": "bool",
          "name": "",
          "type": "bool"
        }
      ],
      "stateMutability": "nonpayable",
      "type": "function"
    },
    {
      "inputs": [
        {
          "internalType": "address",
          "name": "_oldGuardian",
          "type": "address"
        },
        {
          "internalType": "address",
          "name": "_newGuardian",
          "type": "address"
        }
      ],
      "name": "changeGuardian",
      "outputs": [
        {
          "internalType": "bool",
          "name": "",
          "type": "bool"
        }
      ],
      "stateMutability": "nonpayable",
      "type": "function"
    },
    {
      "inputs": [],
      "name": "currentRecoveryRound",
      "outputs": [
        {
          "internalType": "uint256",
          "name": "",
          "type": "uint256"
        }
      ],
      "stateMutability": "view",
      "type": "function"
    },
    {
      "inputs": [
        {
          "internalType": "address",
          "name": "_candidate",
          "type": "address"
        },
        {
          "internalType": "address[]",
          "name": "_guardians",
          "type": "address[]"
        }
      ],
      "name": "executeRecovery",
      "outputs": [
        {
          "internalType": "bool",
          "name": "",
          "type": "bool"
        }
      ],
      "stateMutability": "nonpayable",
      "type": "function"
    },
    {
      "inputs": [],
      "name": "getBalance",
      "outputs": [
        {
          "internalType": "uint256",
          "name": "",
          "type": "uint256"
        }
      ],
      "stateMutability": "view",
      "type": "function"
    },
    {
      "inputs": [],
      "name": "getGuardians",
      "outputs": [
        {
          "internalType": "address[]",
          "name": "",
          "type": "address[]"
        }
      ],
      "stateMutability": "view",
      "type": "function"
    },
    {
      "inputs": [
        {
          "internalType": "address",
          "name": "",
          "type": "address"
        }
      ],
      "name": "guardianToRecovery",
      "outputs": [
        {
          "internalType": "address",
          "name": "candidate",
          "type": "address"
        },
        {
          "internalType": "uint256",
          "name": "recoveryRound",
          "type": "uint256"
        },
        {
          "internalType": "bool",
          "name": "usedInExecuteRecovery",
          "type": "bool"
        }
      ],
      "stateMutability": "view",
      "type": "function"
    },
    {
      "inputs": [],
      "name": "inRecovery",
      "outputs": [
        {
          "internalType": "bool",
          "name": "",
          "type": "bool"
        }
      ],
      "stateMutability": "view",
      "type": "function"
    },
    {
      "inputs": [
        {
          "internalType": "address",
          "name": "",
          "type": "address"
        }
      ],
      "name": "isGuardian",
      "outputs": [
        {
          "internalType": "bool",
          "name": "",
          "type": "bool"
        }
      ],
      "stateMutability": "view",
      "type": "function"
    },
    {
      "inputs": [],
      "name": "isPaused",
      "outputs": [
        {
          "internalType": "bool",
          "name": "",
          "type": "bool"
        }
      ],
      "stateMutability": "view",
      "type": "function"
    },
    {
      "inputs": [],
      "name": "owner",
      "outputs": [
        {
          "internalType": "address",
          "name": "",
          "type": "address"
        }
      ],
      "stateMutability": "view",
      "type": "function"
    },
    {
      "inputs": [],
      "name": "pauseTransfers",
      "outputs": [],
      "stateMutability": "nonpayable",
      "type": "function"
    },
    {
      "inputs": [
        {
          "internalType": "address",
          "name": "_guardian",
          "type": "address"
        }
      ],
      "name": "removeGuardian",
      "outputs": [
        {
          "internalType": "bool",
          "name": "",
          "type": "bool"
        }
      ],
      "stateMutability": "nonpayable",
      "type": "function"
    },
    {
      "inputs": [],
      "name": "requiredVotes",
      "outputs": [
        {
          "internalType": "uint256",
          "name": "",
          "type": "uint256"
        }
      ],
      "stateMutability": "view",
      "type": "function"
    },
    {
      "inputs": [],
      "name": "resumeTransfers",
      "outputs": [],
      "stateMutability": "nonpayable",
      "type": "function"
    },
    {
      "inputs": [
        {
          "internalType": "uint256",
          "name": "_requiredVotes",
          "type": "uint256"
        }
      ],
      "name": "setRequiredVotes",
      "outputs": [],
      "stateMutability": "nonpayable",
      "type": "function"
    },
    {
      "inputs": [
        {
          "internalType": "address",
          "name": "_candidate",
          "type": "address"
        }
      ],
      "name": "supportRecovery",
      "outputs": [
        {
          "internalType": "bool",
          "name": "",
          "type": "bool"
        }
      ],
      "stateMutability": "nonpayable",
      "type": "function"
    },
    {
      "inputs": [
        {
          "internalType": "address",
          "name": "_to",
          "type": "address"
        },
        {
          "internalType": "uint256",
          "name": "_amount",
          "type": "uint256"
        }
      ],
      "name": "transferTo",
      "outputs": [
        {
          "internalType": "bool",
          "name": "",
          "type": "bool"
        }
      ],
      "stateMutability": "nonpayable",
      "type": "function"
    },
    {
      "inputs": [
        {
          "internalType": "address",
          "name": "_candidate",
          "type": "address"
        }
      ],
      "name": "triggerRecovery",
      "outputs": [
        {
          "internalType": "bool",
          "name": "",
          "type": "bool"
        }
      ],
      "stateMutability": "nonpayable",
      "type": "function"
    },
    {
      "stateMutability": "payable",
      "type": "receive"
    }
  ],
  "bytecode": "0x60806040523480156200001157600080fd5b5060405162003f8a38038062003f8a8339818101604052810190620000379190620006cb565b81518111156200007e576040517f08c379a00000000000000000000000000000000000000000000000000000000081526004016200007590620007b8565b60405180910390fd5b60008111620000c4576040517f08c379a0000000000000000000000000000000000000000000000000000000008152600401620000bb9062000850565b60405180910390fd5b336000806101000a81548173ffffffffffffffffffffffffffffffffffffffff021916908373ffffffffffffffffffffffffffffffffffffffff1602179055508060038190555060005b82518110156200015b576200014683828151811062000132576200013162000872565b5b60200260200101516200016460201b60201c565b50806200015390620008d0565b90506200010e565b50505062000b7d565b60008060009054906101000a900473ffffffffffffffffffffffffffffffffffffffff1673ffffffffffffffffffffffffffffffffffffffff163373ffffffffffffffffffffffffffffffffffffffff1614620001f8576040517f08c379a0000000000000000000000000000000000000000000000000000000008152600401620001ef906200096d565b60405180910390fd5b600560009054906101000a900460ff16156200024b576040517f08c379a00000000000000000000000000000000000000000000000000000000081526004016200024290620009df565b60405180910390fd5b600260008373ffffffffffffffffffffffffffffffffffffffff1673ffffffffffffffffffffffffffffffffffffffff16815260200190815260200160002060009054906101000a900460ff1615620002db576040517f08c379a0000000000000000000000000000000000000000000000000000000008152600401620002d29062000a51565b60405180910390fd5b600073ffffffffffffffffffffffffffffffffffffffff168273ffffffffffffffffffffffffffffffffffffffff16036200034d576040517f08c379a0000000000000000000000000000000000000000000000000000000008152600401620003449062000ae9565b60405180910390fd5b60008054906101000a900473ffffffffffffffffffffffffffffffffffffffff1673ffffffffffffffffffffffffffffffffffffffff168273ffffffffffffffffffffffffffffffffffffffff1603620003de576040517f08c379a0000000000000000000000000000000000000000000000000000000008152600401620003d59062000b5b565b60405180910390fd5b6001829080600181540180825580915050600190039060005260206000200160009091909190916101000a81548173ffffffffffffffffffffffffffffffffffffffff021916908373ffffffffffffffffffffffffffffffffffffffff1602179055506001600260008473ffffffffffffffffffffffffffffffffffffffff1673ffffffffffffffffffffffffffffffffffffffff16815260200190815260200160002060006101000a81548160ff02191690831515021790555060019050919050565b6000604051905090565b600080fd5b600080fd5b600080fd5b6000601f19601f8301169050919050565b7f4e487b7100000000000000000000000000000000000000000000000000000000600052604160045260246000fd5b6200050682620004bb565b810181811067ffffffffffffffff82111715620005285762000527620004cc565b5b80604052505050565b60006200053d620004a2565b90506200054b8282620004fb565b919050565b600067ffffffffffffffff8211156200056e576200056d620004cc565b5b602082029050602081019050919050565b600080fd5b600073ffffffffffffffffffffffffffffffffffffffff82169050919050565b6000620005b18262000584565b9050919050565b620005c381620005a4565b8114620005cf57600080fd5b50565b600081519050620005e381620005b8565b92915050565b600062000600620005fa8462000550565b62000531565b905080838252602082019050602084028301858111156200062657620006256200057f565b5b835b818110156200065357806200063e8882620005d2565b84526020840193505060208101905062000628565b5050509392505050565b600082601f830112620006755762000674620004b6565b5b815162000687848260208601620005e9565b91505092915050565b6000819050919050565b620006a58162000690565b8114620006b157600080fd5b50565b600081519050620006c5816200069a565b92915050565b60008060408385031215620006e557620006e4620004ac565b5b600083015167ffffffffffffffff811115620007065762000705620004b1565b5b62000714858286016200065d565b92505060206200072785828601620006b4565b9150509250929050565b600082825260208201905092915050565b7f726571756972656420766f746573206578636565647320677561726469616e7360008201527f206c656e67746800000000000000000000000000000000000000000000000000602082015250565b6000620007a060278362000731565b9150620007ad8262000742565b604082019050919050565b60006020820190508181036000830152620007d38162000791565b9050919050565b7f726571756972656420766f746573206d7573742062652067726561746572207460008201527f68616e207a65726f000000000000000000000000000000000000000000000000602082015250565b60006200083860288362000731565b91506200084582620007da565b604082019050919050565b600060208201905081810360008301526200086b8162000829565b9050919050565b7f4e487b7100000000000000000000000000000000000000000000000000000000600052603260045260246000fd5b7f4e487b7100000000000000000000000000000000000000000000000000000000600052601160045260246000fd5b6000620008dd8262000690565b91507fffffffffffffffffffffffffffffffffffffffffffffffffffffffffffffffff8203620009125762000911620008a1565b5b600182019050919050565b7f63616c6c6572206973206e6f74206f776e657200000000000000000000000000600082015250565b60006200095560138362000731565b915062000962826200091d565b602082019050919050565b60006020820190508181036000830152620009888162000946565b9050919050565b7f77616c6c657420697320696e207265636f76657279206d6f6465000000000000600082015250565b6000620009c7601a8362000731565b9150620009d4826200098f565b602082019050919050565b60006020820190508181036000830152620009fa81620009b8565b9050919050565b7f6475706c696361746520677561726469616e0000000000000000000000000000600082015250565b600062000a3960128362000731565b915062000a468262000a01565b602082019050919050565b6000602082019050818103600083015262000a6c8162000a2a565b9050919050565b7f677561726469616e2063616e206e6f7420626520746865207a65726f2061646460008201527f7265737300000000000000000000000000000000000000000000000000000000602082015250565b600062000ad160248362000731565b915062000ade8262000a73565b604082019050919050565b6000602082019050818103600083015262000b048162000ac2565b9050919050565b7f6f776e65722063616e206e6f74206265206120677561726469616e0000000000600082015250565b600062000b43601b8362000731565b915062000b508262000b0b565b602082019050919050565b6000602082019050818103600083015262000b768162000b34565b9050919050565b6133fd8062000b8d6000396000f3fe6080604052600436106101235760003560e01c806383b40cc9116100a0578063b187bd2611610064578063b187bd2614610492578063bd31a4d8146104bd578063c4d9dcaf146104e8578063c77a16ed14610511578063f05151df1461052857610178565b806383b40cc9146103835780638da5cb5b146103c05780639851a398146103eb578063a079e2a114610416578063a526d83b1461045557610178565b80632ccb1b30116100e75780632ccb1b301461027857806347af9957146102b557806357e685bc146102cc5780635fc489a714610309578063714041561461034657610178565b8063057f54331461017d5780630665f04b146101ba5780630ba234d6146101e55780630c68ba211461021057806312065fe01461024d57610178565b36610178573373ffffffffffffffffffffffffffffffffffffffff167fe1fffcc4923d04b559f4d29a8bfc6cda04eb5b0d3c460751c2402c5c5cc9109c3460405161016e91906123db565b60405180910390a2005b600080fd5b34801561018957600080fd5b506101a4600480360381019061019f919061245e565b610553565b6040516101b191906124a6565b60405180910390f35b3480156101c657600080fd5b506101cf61076a565b6040516101dc919061257f565b60405180910390f35b3480156101f157600080fd5b506101fa6107f8565b60405161020791906124a6565b60405180910390f35b34801561021c57600080fd5b506102376004803603810190610232919061245e565b610945565b60405161024491906124a6565b60405180910390f35b34801561025957600080fd5b50610262610965565b60405161026f91906123db565b60405180910390f35b34801561028457600080fd5b5061029f600480360381019061029a91906125cd565b61096d565b6040516102ac91906124a6565b60405180910390f35b3480156102c157600080fd5b506102ca610b9f565b005b3480156102d857600080fd5b506102f360048036038101906102ee919061245e565b610c9a565b60405161030091906124a6565b60405180910390f35b34801561031557600080fd5b50610330600480360381019061032b9190612672565b610e10565b60405161033d91906124a6565b60405180910390f35b34801561035257600080fd5b5061036d6004803603810190610368919061245e565b6113c5565b60405161037a91906124a6565b60405180910390f35b34801561038f57600080fd5b506103aa60048036038101906103a591906126d2565b611662565b6040516103b791906124a6565b60405180910390f35b3480156103cc57600080fd5b506103d5611a78565b6040516103e29190612721565b60405180910390f35b3480156103f757600080fd5b50610400611a9c565b60405161040d91906123db565b60405180910390f35b34801561042257600080fd5b5061043d6004803603810190610438919061245e565b611aa2565b60405161044c9392919061273c565b60405180910390f35b34801561046157600080fd5b5061047c6004803603810190610477919061245e565b611af9565b60405161048991906124a6565b60405180910390f35b34801561049e57600080fd5b506104a7611e28565b6040516104b491906124a6565b60405180910390f35b3480156104c957600080fd5b506104d2611e3b565b6040516104df91906123db565b60405180910390f35b3480156104f457600080fd5b5061050f600480360381019061050a9190612773565b611e41565b005b34801561051d57600080fd5b50610526611ff8565b005b34801561053457600080fd5b5061053d6120f2565b60405161054a91906124a6565b60405180910390f35b6000600260003373ffffffffffffffffffffffffffffffffffffffff1673ffffffffffffffffffffffffffffffffffffffff16815260200190815260200160002060009054906101000a900460ff166105e1576040517f08c379a00000000000000000000000000000000000000000000000000000000081526004016105d8906127fd565b60405180910390fd5b600560009054906101000a900460ff1615610631576040517f08c379a000000000000000000000000000000000000000000000000000000000815260040161062890612869565b60405180910390fd5b600073ffffffffffffffffffffffffffffffffffffffff168273ffffffffffffffffffffffffffffffffffffffff16036106a0576040517f08c379a0000000000000000000000000000000000000000000000000000000008152600401610697906128d5565b60405180910390fd5b6001600560006101000a81548160ff0219169083151502179055506004600081546106ca90612924565b919050819055506107103360405180606001604052808573ffffffffffffffffffffffffffffffffffffffff168152602001600454815260200160001515815250612105565b6004543373ffffffffffffffffffffffffffffffffffffffff167fe290ea2cc3cfeb5114f992dc8be9e503de30042c13b9298644a2679b09e17a04846040516107599190612721565b60405180910390a360019050919050565b606060018054806020026020016040519081016040528092919081815260200182805480156107ee57602002820191906000526020600020905b8160009054906101000a900473ffffffffffffffffffffffffffffffffffffffff1673ffffffffffffffffffffffffffffffffffffffff16815260200190600101908083116107a4575b5050505050905090565b60008060009054906101000a900473ffffffffffffffffffffffffffffffffffffffff1673ffffffffffffffffffffffffffffffffffffffff163373ffffffffffffffffffffffffffffffffffffffff1614610889576040517f08c379a0000000000000000000000000000000000000000000000000000000008152600401610880906129b8565b60405180910390fd5b600560009054906101000a900460ff166108d8576040517f08c379a00000000000000000000000000000000000000000000000000000000081526004016108cf90612a24565b60405180910390fd5b6000600560006101000a81548160ff0219169083151502179055506000600454905060046000815461090990612924565b91905081905550807f02019f620969ef34023e1048f0b0f0e1c337f94acda5cfad6aaceb569896745560405160405180910390a2600191505090565b60026020528060005260406000206000915054906101000a900460ff1681565b600047905090565b60008060009054906101000a900473ffffffffffffffffffffffffffffffffffffffff1673ffffffffffffffffffffffffffffffffffffffff163373ffffffffffffffffffffffffffffffffffffffff16146109fe576040517f08c379a00000000000000000000000000000000000000000000000000000000081526004016109f5906129b8565b60405180910390fd5b600560019054906101000a900460ff1615610a4e576040517f08c379a0000000000000000000000000000000000000000000000000000000008152600401610a4590612a90565b60405180910390fd5b600073ffffffffffffffffffffffffffffffffffffffff168373ffffffffffffffffffffffffffffffffffffffff1603610abd576040517f08c379a0000000000000000000000000000000000000000000000000000000008152600401610ab490612b22565b60405180910390fd5b47821115610b00576040517f08c379a0000000000000000000000000000000000000000000000000000000008152600401610af790612b8e565b60405180910390fd5b8273ffffffffffffffffffffffffffffffffffffffff166108fc839081150290604051600060405180830381858888f19350505050158015610b46573d6000803e3d6000fd5b508273ffffffffffffffffffffffffffffffffffffffff167f69ca02dd4edd7bf0a4abb9ed3b7af3f14778db5d61921c7dc7cd545266326de283604051610b8d91906123db565b60405180910390a26001905092915050565b60008054906101000a900473ffffffffffffffffffffffffffffffffffffffff1673ffffffffffffffffffffffffffffffffffffffff163373ffffffffffffffffffffffffffffffffffffffff1614610c2d576040517f08c379a0000000000000000000000000000000000000000000000000000000008152600401610c24906129b8565b60405180910390fd5b600560019054906101000a900460ff1615610c7d576040517f08c379a0000000000000000000000000000000000000000000000000000000008152600401610c7490612a90565b60405180910390fd5b6001600560016101000a81548160ff021916908315150217905550565b6000600260003373ffffffffffffffffffffffffffffffffffffffff1673ffffffffffffffffffffffffffffffffffffffff16815260200190815260200160002060009054906101000a900460ff16610d28576040517f08c379a0000000000000000000000000000000000000000000000000000000008152600401610d1f906127fd565b60405180910390fd5b600560009054906101000a900460ff16610d77576040517f08c379a0000000000000000000000000000000000000000000000000000000008152600401610d6e90612a24565b60405180910390fd5b610db63360405180606001604052808573ffffffffffffffffffffffffffffffffffffffff168152602001600454815260200160001515815250612105565b6004543373ffffffffffffffffffffffffffffffffffffffff167f7a0b940199ff58e943823fe8c0e916df112be357049d8105a7e83cf9a4000e4a84604051610dff9190612721565b60405180910390a360019050919050565b6000600260003373ffffffffffffffffffffffffffffffffffffffff1673ffffffffffffffffffffffffffffffffffffffff16815260200190815260200160002060009054906101000a900460ff16610e9e576040517f08c379a0000000000000000000000000000000000000000000000000000000008152600401610e95906127fd565b60405180910390fd5b600560009054906101000a900460ff16610eed576040517f08c379a0000000000000000000000000000000000000000000000000000000008152600401610ee490612a24565b60405180910390fd5b600073ffffffffffffffffffffffffffffffffffffffff168473ffffffffffffffffffffffffffffffffffffffff1603610f5c576040517f08c379a0000000000000000000000000000000000000000000000000000000008152600401610f53906128d5565b60405180910390fd5b600260008573ffffffffffffffffffffffffffffffffffffffff1673ffffffffffffffffffffffffffffffffffffffff16815260200190815260200160002060009054906101000a900460ff1615610fe9576040517f08c379a0000000000000000000000000000000000000000000000000000000008152600401610fe090612bfa565b60405180910390fd5b600354838390501015611031576040517f08c379a000000000000000000000000000000000000000000000000000000000815260040161102890612c8c565b60405180910390fd5b60005b838390508110156112c45760006006600086868581811061105857611057612cac565b5b905060200201602081019061106d919061245e565b73ffffffffffffffffffffffffffffffffffffffff1673ffffffffffffffffffffffffffffffffffffffff1681526020019081526020016000206040518060600160405290816000820160009054906101000a900473ffffffffffffffffffffffffffffffffffffffff1673ffffffffffffffffffffffffffffffffffffffff1673ffffffffffffffffffffffffffffffffffffffff168152602001600182015481526020016002820160009054906101000a900460ff1615151515815250509050600454816020015114611177576040517f08c379a000000000000000000000000000000000000000000000000000000000815260040161116e90612d27565b60405180910390fd5b8573ffffffffffffffffffffffffffffffffffffffff16816000015173ffffffffffffffffffffffffffffffffffffffff16146111e9576040517f08c379a00000000000000000000000000000000000000000000000000000000081526004016111e090612d93565b60405180910390fd5b80604001511561122e576040517f08c379a000000000000000000000000000000000000000000000000000000000815260040161122590612dff565b60405180910390fd5b60016006600087878681811061124757611246612cac565b5b905060200201602081019061125c919061245e565b73ffffffffffffffffffffffffffffffffffffffff1673ffffffffffffffffffffffffffffffffffffffff16815260200190815260200160002060020160006101000a81548160ff0219169083151502179055505080806112bc90612924565b915050611034565b506000600560006101000a81548160ff02191690831515021790555060008060009054906101000a900473ffffffffffffffffffffffffffffffffffffffff169050846000806101000a81548173ffffffffffffffffffffffffffffffffffffffff021916908373ffffffffffffffffffffffffffffffffffffffff1602179055506004543373ffffffffffffffffffffffffffffffffffffffff167f049e4801ce3a7998a857fb11a89d2971d4362a3555498cf753a7e84b2f0c5b298360008054906101000a900473ffffffffffffffffffffffffffffffffffffffff166040516113b1929190612e1f565b60405180910390a360019150509392505050565b60008060009054906101000a900473ffffffffffffffffffffffffffffffffffffffff1673ffffffffffffffffffffffffffffffffffffffff163373ffffffffffffffffffffffffffffffffffffffff1614611456576040517f08c379a000000000000000000000000000000000000000000000000000000000815260040161144d906129b8565b60405180910390fd5b600560009054906101000a900460ff16156114a6576040517f08c379a000000000000000000000000000000000000000000000000000000000815260040161149d90612869565b60405180910390fd5b600073ffffffffffffffffffffffffffffffffffffffff168273ffffffffffffffffffffffffffffffffffffffff1603611515576040517f08c379a000000000000000000000000000000000000000000000000000000000815260040161150c90612eba565b60405180910390fd5b600260008373ffffffffffffffffffffffffffffffffffffffff1673ffffffffffffffffffffffffffffffffffffffff16815260200190815260200160002060009054906101000a900460ff166115a1576040517f08c379a000000000000000000000000000000000000000000000000000000000815260040161159890612f26565b60405180910390fd5b600354600180805490506115b59190612f46565b10156115f6576040517f08c379a00000000000000000000000000000000000000000000000000000000081526004016115ed90612fec565b60405180910390fd5b6116016001836121bd565b6000600260008473ffffffffffffffffffffffffffffffffffffffff1673ffffffffffffffffffffffffffffffffffffffff16815260200190815260200160002060006101000a81548160ff02191690831515021790555060019050919050565b60008060009054906101000a900473ffffffffffffffffffffffffffffffffffffffff1673ffffffffffffffffffffffffffffffffffffffff163373ffffffffffffffffffffffffffffffffffffffff16146116f3576040517f08c379a00000000000000000000000000000000000000000000000000000000081526004016116ea906129b8565b60405180910390fd5b600560009054906101000a900460ff1615611743576040517f08c379a000000000000000000000000000000000000000000000000000000000815260040161173a90612869565b60405180910390fd5b600260008473ffffffffffffffffffffffffffffffffffffffff1673ffffffffffffffffffffffffffffffffffffffff16815260200190815260200160002060009054906101000a900460ff166117cf576040517f08c379a00000000000000000000000000000000000000000000000000000000081526004016117c690612f26565b60405180910390fd5b600073ffffffffffffffffffffffffffffffffffffffff168273ffffffffffffffffffffffffffffffffffffffff160361183e576040517f08c379a00000000000000000000000000000000000000000000000000000000081526004016118359061307e565b60405180910390fd5b60008054906101000a900473ffffffffffffffffffffffffffffffffffffffff1673ffffffffffffffffffffffffffffffffffffffff168273ffffffffffffffffffffffffffffffffffffffff16036118cc576040517f08c379a00000000000000000000000000000000000000000000000000000000081526004016118c3906130ea565b60405180910390fd5b600061195e600180548060200260200160405190810160405280929190818152602001828054801561195357602002820191906000526020600020905b8160009054906101000a900473ffffffffffffffffffffffffffffffffffffffff1673ffffffffffffffffffffffffffffffffffffffff1681526020019060010190808311611909575b505050505085612344565b9050826001828154811061197557611974612cac565b5b9060005260206000200160006101000a81548173ffffffffffffffffffffffffffffffffffffffff021916908373ffffffffffffffffffffffffffffffffffffffff1602179055506000600260008673ffffffffffffffffffffffffffffffffffffffff1673ffffffffffffffffffffffffffffffffffffffff16815260200190815260200160002060006101000a81548160ff0219169083151502179055506001600260008573ffffffffffffffffffffffffffffffffffffffff1673ffffffffffffffffffffffffffffffffffffffff16815260200190815260200160002060006101000a81548160ff021916908315150217905550600191505092915050565b60008054906101000a900473ffffffffffffffffffffffffffffffffffffffff1681565b60045481565b60066020528060005260406000206000915090508060000160009054906101000a900473ffffffffffffffffffffffffffffffffffffffff16908060010154908060020160009054906101000a900460ff16905083565b60008060009054906101000a900473ffffffffffffffffffffffffffffffffffffffff1673ffffffffffffffffffffffffffffffffffffffff163373ffffffffffffffffffffffffffffffffffffffff1614611b8a576040517f08c379a0000000000000000000000000000000000000000000000000000000008152600401611b81906129b8565b60405180910390fd5b600560009054906101000a900460ff1615611bda576040517f08c379a0000000000000000000000000000000000000000000000000000000008152600401611bd190612869565b60405180910390fd5b600260008373ffffffffffffffffffffffffffffffffffffffff1673ffffffffffffffffffffffffffffffffffffffff16815260200190815260200160002060009054906101000a900460ff1615611c67576040517f08c379a0000000000000000000000000000000000000000000000000000000008152600401611c5e90612dff565b60405180910390fd5b600073ffffffffffffffffffffffffffffffffffffffff168273ffffffffffffffffffffffffffffffffffffffff1603611cd6576040517f08c379a0000000000000000000000000000000000000000000000000000000008152600401611ccd9061307e565b60405180910390fd5b60008054906101000a900473ffffffffffffffffffffffffffffffffffffffff1673ffffffffffffffffffffffffffffffffffffffff168273ffffffffffffffffffffffffffffffffffffffff1603611d64576040517f08c379a0000000000000000000000000000000000000000000000000000000008152600401611d5b90613156565b60405180910390fd5b6001829080600181540180825580915050600190039060005260206000200160009091909190916101000a81548173ffffffffffffffffffffffffffffffffffffffff021916908373ffffffffffffffffffffffffffffffffffffffff1602179055506001600260008473ffffffffffffffffffffffffffffffffffffffff1673ffffffffffffffffffffffffffffffffffffffff16815260200190815260200160002060006101000a81548160ff02191690831515021790555060019050919050565b600560019054906101000a900460ff1681565b60035481565b60008054906101000a900473ffffffffffffffffffffffffffffffffffffffff1673ffffffffffffffffffffffffffffffffffffffff163373ffffffffffffffffffffffffffffffffffffffff1614611ecf576040517f08c379a0000000000000000000000000000000000000000000000000000000008152600401611ec6906129b8565b60405180910390fd5b600560009054906101000a900460ff1615611f1f576040517f08c379a0000000000000000000000000000000000000000000000000000000008152600401611f1690612869565b60405180910390fd5b60008111611f62576040517f08c379a0000000000000000000000000000000000000000000000000000000008152600401611f59906131e8565b60405180910390fd5b600180549050811115611faa576040517f08c379a0000000000000000000000000000000000000000000000000000000008152600401611fa19061327a565b60405180910390fd5b6003548103611fee576040517f08c379a0000000000000000000000000000000000000000000000000000000008152600401611fe59061330c565b60405180910390fd5b8060038190555050565b60008054906101000a900473ffffffffffffffffffffffffffffffffffffffff1673ffffffffffffffffffffffffffffffffffffffff163373ffffffffffffffffffffffffffffffffffffffff1614612086576040517f08c379a000000000000000000000000000000000000000000000000000000000815260040161207d906129b8565b60405180910390fd5b600560019054906101000a900460ff166120d5576040517f08c379a00000000000000000000000000000000000000000000000000000000081526004016120cc90613378565b60405180910390fd5b6000600560016101000a81548160ff021916908315150217905550565b600560009054906101000a900460ff1681565b80600660008473ffffffffffffffffffffffffffffffffffffffff1673ffffffffffffffffffffffffffffffffffffffff16815260200190815260200160002060008201518160000160006101000a81548173ffffffffffffffffffffffffffffffffffffffff021916908373ffffffffffffffffffffffffffffffffffffffff1602179055506020820151816001015560408201518160020160006101000a81548160ff0219169083151502179055509050505050565b600061224e8380548060200260200160405190810160405280929190818152602001828054801561224357602002820191906000526020600020905b8160009054906101000a900473ffffffffffffffffffffffffffffffffffffffff1673ffffffffffffffffffffffffffffffffffffffff16815260200190600101908083116121f9575b505050505083612344565b905082600184805490506122629190612f46565b8154811061227357612272612cac565b5b9060005260206000200160009054906101000a900473ffffffffffffffffffffffffffffffffffffffff168382815481106122b1576122b0612cac565b5b9060005260206000200160006101000a81548173ffffffffffffffffffffffffffffffffffffffff021916908373ffffffffffffffffffffffffffffffffffffffff1602179055508280548061230a57612309613398565b5b6001900381819060005260206000200160006101000a81549073ffffffffffffffffffffffffffffffffffffffff02191690559055505050565b600080600090505b83518110156123bb578273ffffffffffffffffffffffffffffffffffffffff1684828151811061237f5761237e612cac565b5b602002602001015173ffffffffffffffffffffffffffffffffffffffff16036123aa578091506123bb565b806123b490612924565b905061234c565b5092915050565b6000819050919050565b6123d5816123c2565b82525050565b60006020820190506123f060008301846123cc565b92915050565b600080fd5b600080fd5b600073ffffffffffffffffffffffffffffffffffffffff82169050919050565b600061242b82612400565b9050919050565b61243b81612420565b811461244657600080fd5b50565b60008135905061245881612432565b92915050565b600060208284031215612474576124736123f6565b5b600061248284828501612449565b91505092915050565b60008115159050919050565b6124a08161248b565b82525050565b60006020820190506124bb6000830184612497565b92915050565b600081519050919050565b600082825260208201905092915050565b6000819050602082019050919050565b6124f681612420565b82525050565b600061250883836124ed565b60208301905092915050565b6000602082019050919050565b600061252c826124c1565b61253681856124cc565b9350612541836124dd565b8060005b8381101561257257815161255988826124fc565b975061256483612514565b925050600181019050612545565b5085935050505092915050565b600060208201905081810360008301526125998184612521565b905092915050565b6125aa816123c2565b81146125b557600080fd5b50565b6000813590506125c7816125a1565b92915050565b600080604083850312156125e4576125e36123f6565b5b60006125f285828601612449565b9250506020612603858286016125b8565b9150509250929050565b600080fd5b600080fd5b600080fd5b60008083601f8401126126325761263161260d565b5b8235905067ffffffffffffffff81111561264f5761264e612612565b5b60208301915083602082028301111561266b5761266a612617565b5b9250929050565b60008060006040848603121561268b5761268a6123f6565b5b600061269986828701612449565b935050602084013567ffffffffffffffff8111156126ba576126b96123fb565b5b6126c68682870161261c565b92509250509250925092565b600080604083850312156126e9576126e86123f6565b5b60006126f785828601612449565b925050602061270885828601612449565b9150509250929050565b61271b81612420565b82525050565b60006020820190506127366000830184612712565b92915050565b60006060820190506127516000830186612712565b61275e60208301856123cc565b61276b6040830184612497565b949350505050565b600060208284031215612789576127886123f6565b5b6000612797848285016125b8565b91505092915050565b600082825260208201905092915050565b7f63616c6c6572206973206e6f7420677561726469616e00000000000000000000600082015250565b60006127e76016836127a0565b91506127f2826127b1565b602082019050919050565b60006020820190508181036000830152612816816127da565b9050919050565b7f77616c6c657420697320696e207265636f76657279206d6f6465000000000000600082015250565b6000612853601a836127a0565b915061285e8261281d565b602082019050919050565b6000602082019050818103600083015261288281612846565b9050919050565b7f7a65726f206164647265737320696e76616c6964000000000000000000000000600082015250565b60006128bf6014836127a0565b91506128ca82612889565b602082019050919050565b600060208201905081810360008301526128ee816128b2565b9050919050565b7f4e487b7100000000000000000000000000000000000000000000000000000000600052601160045260246000fd5b600061292f826123c2565b91507fffffffffffffffffffffffffffffffffffffffffffffffffffffffffffffffff8203612961576129606128f5565b5b600182019050919050565b7f63616c6c6572206973206e6f74206f776e657200000000000000000000000000600082015250565b60006129a26013836127a0565b91506129ad8261296c565b602082019050919050565b600060208201905081810360008301526129d181612995565b9050919050565b7f77616c6c6574206973206e6f7420696e207265636f76657279206d6f64650000600082015250565b6000612a0e601e836127a0565b9150612a19826129d8565b602082019050919050565b60006020820190508181036000830152612a3d81612a01565b9050919050565b7f7472616e73666572732061726520706175736564000000000000000000000000600082015250565b6000612a7a6014836127a0565b9150612a8582612a44565b602082019050919050565b60006020820190508181036000830152612aa981612a6d565b9050919050565b7f72656365697665722063616e206e6f7420626520746865207a65726f2061646460008201527f7265737300000000000000000000000000000000000000000000000000000000602082015250565b6000612b0c6024836127a0565b9150612b1782612ab0565b604082019050919050565b60006020820190508181036000830152612b3b81612aff565b9050919050565b7f696e73756666696369656e742062616c616e6365000000000000000000000000600082015250565b6000612b786014836127a0565b9150612b8382612b42565b602082019050919050565b60006020820190508181036000830152612ba781612b6b565b9050919050565b7f63616e6469646174652063616e206e6f74206265206120677561726469616e00600082015250565b6000612be4601f836127a0565b9150612bef82612bae565b602082019050919050565b60006020820190508181036000830152612c1381612bd7565b9050919050565b7f677561726469616e73206c657373207468616e20726571756972656420766f7460008201527f6573000000000000000000000000000000000000000000000000000000000000602082015250565b6000612c766022836127a0565b9150612c8182612c1a565b604082019050919050565b60006020820190508181036000830152612ca581612c69565b9050919050565b7f4e487b7100000000000000000000000000000000000000000000000000000000600052603260045260246000fd5b7f726f756e64206d69736d61746368000000000000000000000000000000000000600082015250565b6000612d11600e836127a0565b9150612d1c82612cdb565b602082019050919050565b60006020820190508181036000830152612d4081612d04565b9050919050565b7f64697361677265656d656e74206f6e206e6577206f776e657200000000000000600082015250565b6000612d7d6019836127a0565b9150612d8882612d47565b602082019050919050565b60006020820190508181036000830152612dac81612d70565b9050919050565b7f6475706c696361746520677561726469616e0000000000000000000000000000600082015250565b6000612de96012836127a0565b9150612df482612db3565b602082019050919050565b60006020820190508181036000830152612e1881612ddc565b9050919050565b6000604082019050612e346000830185612712565b612e416020830184612712565b9392505050565b7f616464726573732063616e206e6f7420626520746865207a65726f206164647260008201527f6573730000000000000000000000000000000000000000000000000000000000602082015250565b6000612ea46023836127a0565b9150612eaf82612e48565b604082019050919050565b60006020820190508181036000830152612ed381612e97565b9050919050565b7f677561726469616e20646f6573206e6f74206578697374000000000000000000600082015250565b6000612f106017836127a0565b9150612f1b82612eda565b602082019050919050565b60006020820190508181036000830152612f3f81612f03565b9050919050565b6000612f51826123c2565b9150612f5c836123c2565b9250828203905081811115612f7457612f736128f5565b5b92915050565b7f726571756972656420766f746573206d757374206265206c657373207468616e60008201527f20746865206e756d626572206f6620677561726469616e730000000000000000602082015250565b6000612fd66038836127a0565b9150612fe182612f7a565b604082019050919050565b6000602082019050818103600083015261300581612fc9565b9050919050565b7f677561726469616e2063616e206e6f7420626520746865207a65726f2061646460008201527f7265737300000000000000000000000000000000000000000000000000000000602082015250565b60006130686024836127a0565b91506130738261300c565b604082019050919050565b600060208201905081810360008301526130978161305b565b9050919050565b7f677561726469616e2063616e206e6f7420626520746865206f776e6572000000600082015250565b60006130d4601d836127a0565b91506130df8261309e565b602082019050919050565b60006020820190508181036000830152613103816130c7565b9050919050565b7f6f776e65722063616e206e6f74206265206120677561726469616e0000000000600082015250565b6000613140601b836127a0565b915061314b8261310a565b602082019050919050565b6000602082019050818103600083015261316f81613133565b9050919050565b7f726571756972656420766f746573206d7573742062652067726561746572207460008201527f68616e207a65726f000000000000000000000000000000000000000000000000602082015250565b60006131d26028836127a0565b91506131dd82613176565b604082019050919050565b60006020820190508181036000830152613201816131c5565b9050919050565b7f726571756972656420766f7465732067726561746572207468616e207468652060008201527f6e756d626572206f6620677561726469616e7300000000000000000000000000602082015250565b60006132646033836127a0565b915061326f82613208565b604082019050919050565b6000602082019050818103600083015261329381613257565b9050919050565b7f726571756972656420766f74657320616c72656164792068617320746861742060008201527f76616c7565000000000000000000000000000000000000000000000000000000602082015250565b60006132f66025836127a0565b91506133018261329a565b604082019050919050565b60006020820190508181036000830152613325816132e9565b9050919050565b7f7472616e736665727320617265206e6f74207061757365640000000000000000600082015250565b60006133626018836127a0565b915061336d8261332c565b602082019050919050565b6000602082019050818103600083015261339181613355565b9050919050565b7f4e487b7100000000000000000000000000000000000000000000000000000000600052603160045260246000fdfea264697066735822122091dcad417beed94fee3981ef21b2d931cfcda96ef3f8838a2b490f3f6ce26fa964736f6c63430008120033",
  "linkReferences": {},
  "deployedLinkReferences": {}
}