{
  "_format": "hh-sol-artifact-1",
  "contractName": "SmartWallet",
  "sourceName": "contracts/SmartWallet.sol",
  "abi": [
    {
      "inputs": [
        {
          "internalType": "address[]",
          "name": "_guardians",
          "type": "address[]"
        },
        {
          "internalType": "uint256",
          "name": "_requiredVotes",
          "type": "uint256"
        }
      ],
      "stateMutability": "nonpayable",
      "type": "constructor"
    },
    {
      "anonymous": false,
      "inputs": [
        {
          "indexed": true,
          "internalType": "address",
          "name": "from",
          "type": "address"
        },
        {
          "indexed": false,
          "internalType": "uint256",
          "name": "amount",
          "type": "uint256"
        }
      ],
      "name": "Deposit",
      "type": "event"
    },
    {
      "anonymous": false,
      "inputs": [
        {
          "indexed": true,
          "internalType": "uint256",
          "name": "round",
          "type": "uint256"
        }
      ],
      "name": "RecoveryCancelled",
      "type": "event"
    },
    {
      "anonymous": false,
      "inputs": [
        {
          "indexed": true,
          "internalType": "address",
          "name": "by",
          "type": "address"
        },
        {
          "indexed": false,
          "internalType": "address",
          "name": "oldOwner",
          "type": "address"
        },
        {
          "indexed": false,
          "internalType": "address",
          "name": "newOwner",
          "type": "address"
        },
        {
          "indexed": true,
          "internalType": "uint256",
          "name": "round",
          "type": "uint256"
        }
      ],
      "name": "RecoveryExecuted",
      "type": "event"
    },
    {
      "anonymous": false,
      "inputs": [
        {
          "indexed": true,
          "internalType": "address",
          "name": "by",
          "type": "address"
        },
        {
          "indexed": false,
          "internalType": "address",
          "name": "candidate",
          "type": "address"
        },
        {
          "indexed": true,
          "internalType": "uint256",
          "name": "round",
          "type": "uint256"
        }
      ],
      "name": "RecoveryInitiated",
      "type": "event"
    },
    {
      "anonymous": false,
      "inputs": [
        {
          "indexed": true,
          "internalType": "address",
          "name": "by",
          "type": "address"
        },
        {
          "indexed": false,
          "internalType": "address",
          "name": "candidate",
          "type": "address"
        },
        {
          "indexed": true,
          "internalType": "uint256",
          "name": "round",
          "type": "uint256"
        }
      ],
      "name": "RecoverySupported",
      "type": "event"
    },
    {
      "anonymous": false,
      "inputs": [
        {
          "indexed": true,
          "internalType": "address",
          "name": "to",
          "type": "address"
        },
        {
          "indexed": false,
          "internalType": "uint256",
          "name": "amount",
          "type": "uint256"
        }
      ],
      "name": "Transfer",
      "type": "event"
    },
    {
      "inputs": [
        {
          "internalType": "address",
          "name": "_guardian",
          "type": "address"
        }
      ],
      "name": "addGuardian",
      "outputs": [
        {
          "internalType": "bool",
          "name": "",
          "type": "bool"
        }
      ],
      "stateMutability": "nonpayable",
      "type": "function"
    },
    {
      "inputs": [],
      "name": "cancelRecovery",
      "outputs": [
        {
          "internalType": "bool",
          "name": "",
          "type": "bool"
        }
      ],
      "stateMutability": "nonpayable",
      "type": "function"
    },
    {
      "inputs": [
        {
          "internalType": "address",
          "name": "_oldGuardian",
          "type": "address"
        },
        {
          "internalType": "address",
          "name": "_newGuardian",
          "type": "address"
        }
      ],
      "name": "changeGuardian",
      "outputs": [
        {
          "internalType": "bool",
          "name": "",
          "type": "bool"
        }
      ],
      "stateMutability": "nonpayable",
      "type": "function"
    },
    {
      "inputs": [],
      "name": "currentRecoveryRound",
      "outputs": [
        {
          "internalType": "uint256",
          "name": "",
          "type": "uint256"
        }
      ],
      "stateMutability": "view",
      "type": "function"
    },
    {
      "inputs": [],
      "name": "deposit",
      "outputs": [],
      "stateMutability": "payable",
      "type": "function"
    },
    {
      "inputs": [
        {
          "internalType": "address",
          "name": "_candidate",
          "type": "address"
        },
        {
          "internalType": "address[]",
          "name": "_guardians",
          "type": "address[]"
        }
      ],
      "name": "executeRecovery",
      "outputs": [
        {
          "internalType": "bool",
          "name": "",
          "type": "bool"
        }
      ],
      "stateMutability": "nonpayable",
      "type": "function"
    },
    {
      "inputs": [],
      "name": "getBalance",
      "outputs": [
        {
          "internalType": "uint256",
          "name": "",
          "type": "uint256"
        }
      ],
      "stateMutability": "view",
      "type": "function"
    },
    {
      "inputs": [],
      "name": "getGuardians",
      "outputs": [
        {
          "internalType": "address[]",
          "name": "",
          "type": "address[]"
        }
      ],
      "stateMutability": "view",
      "type": "function"
    },
    {
      "inputs": [
        {
          "internalType": "address",
          "name": "",
          "type": "address"
        }
      ],
      "name": "guardianToRecovery",
      "outputs": [
        {
          "internalType": "address",
          "name": "candidate",
          "type": "address"
        },
        {
          "internalType": "uint256",
          "name": "recoveryRound",
          "type": "uint256"
        },
        {
          "internalType": "bool",
          "name": "usedInExecuteRecovery",
          "type": "bool"
        }
      ],
      "stateMutability": "view",
      "type": "function"
    },
    {
      "inputs": [],
      "name": "inRecovery",
      "outputs": [
        {
          "internalType": "bool",
          "name": "",
          "type": "bool"
        }
      ],
      "stateMutability": "view",
      "type": "function"
    },
    {
      "inputs": [
        {
          "internalType": "address",
          "name": "",
          "type": "address"
        }
      ],
      "name": "isGuardian",
      "outputs": [
        {
          "internalType": "bool",
          "name": "",
          "type": "bool"
        }
      ],
      "stateMutability": "view",
      "type": "function"
    },
    {
      "inputs": [],
      "name": "isPaused",
      "outputs": [
        {
          "internalType": "bool",
          "name": "",
          "type": "bool"
        }
      ],
      "stateMutability": "view",
      "type": "function"
    },
    {
      "inputs": [],
      "name": "owner",
      "outputs": [
        {
          "internalType": "address",
          "name": "",
          "type": "address"
        }
      ],
      "stateMutability": "view",
      "type": "function"
    },
    {
      "inputs": [],
      "name": "pauseTransfers",
      "outputs": [],
      "stateMutability": "nonpayable",
      "type": "function"
    },
    {
      "inputs": [
        {
          "internalType": "address",
          "name": "_guardian",
          "type": "address"
        }
      ],
      "name": "removeGuardian",
      "outputs": [
        {
          "internalType": "bool",
          "name": "",
          "type": "bool"
        }
      ],
      "stateMutability": "nonpayable",
      "type": "function"
    },
    {
      "inputs": [],
      "name": "requiredVotes",
      "outputs": [
        {
          "internalType": "uint256",
          "name": "",
          "type": "uint256"
        }
      ],
      "stateMutability": "view",
      "type": "function"
    },
    {
      "inputs": [],
      "name": "resumeTransfers",
      "outputs": [],
      "stateMutability": "nonpayable",
      "type": "function"
    },
    {
      "inputs": [
        {
          "internalType": "uint256",
          "name": "_requiredVotes",
          "type": "uint256"
        }
      ],
      "name": "setRequiredVotes",
      "outputs": [],
      "stateMutability": "nonpayable",
      "type": "function"
    },
    {
      "inputs": [
        {
          "internalType": "address",
          "name": "_candidate",
          "type": "address"
        }
      ],
      "name": "supportRecovery",
      "outputs": [
        {
          "internalType": "bool",
          "name": "",
          "type": "bool"
        }
      ],
      "stateMutability": "nonpayable",
      "type": "function"
    },
    {
      "inputs": [
        {
          "internalType": "address",
          "name": "_to",
          "type": "address"
        },
        {
          "internalType": "uint256",
          "name": "_amount",
          "type": "uint256"
        }
      ],
      "name": "transferTo",
      "outputs": [
        {
          "internalType": "bool",
          "name": "",
          "type": "bool"
        }
      ],
      "stateMutability": "nonpayable",
      "type": "function"
    },
    {
      "inputs": [
        {
          "internalType": "address",
          "name": "_candidate",
          "type": "address"
        }
      ],
      "name": "triggerRecovery",
      "outputs": [
        {
          "internalType": "bool",
          "name": "",
          "type": "bool"
        }
      ],
      "stateMutability": "nonpayable",
      "type": "function"
    }
  ],
  "bytecode": "0x60806040523480156200001157600080fd5b5060405162003f9638038062003f968339818101604052810190620000379190620006cb565b81518111156200007e576040517f08c379a00000000000000000000000000000000000000000000000000000000081526004016200007590620007b8565b60405180910390fd5b60008111620000c4576040517f08c379a0000000000000000000000000000000000000000000000000000000008152600401620000bb9062000850565b60405180910390fd5b336000806101000a81548173ffffffffffffffffffffffffffffffffffffffff021916908373ffffffffffffffffffffffffffffffffffffffff1602179055508060038190555060005b82518110156200015b576200014683828151811062000132576200013162000872565b5b60200260200101516200016460201b60201c565b50806200015390620008d0565b90506200010e565b50505062000b7d565b60008060009054906101000a900473ffffffffffffffffffffffffffffffffffffffff1673ffffffffffffffffffffffffffffffffffffffff163373ffffffffffffffffffffffffffffffffffffffff1614620001f8576040517f08c379a0000000000000000000000000000000000000000000000000000000008152600401620001ef906200096d565b60405180910390fd5b600560009054906101000a900460ff16156200024b576040517f08c379a00000000000000000000000000000000000000000000000000000000081526004016200024290620009df565b60405180910390fd5b600260008373ffffffffffffffffffffffffffffffffffffffff1673ffffffffffffffffffffffffffffffffffffffff16815260200190815260200160002060009054906101000a900460ff1615620002db576040517f08c379a0000000000000000000000000000000000000000000000000000000008152600401620002d29062000a51565b60405180910390fd5b600073ffffffffffffffffffffffffffffffffffffffff168273ffffffffffffffffffffffffffffffffffffffff16036200034d576040517f08c379a0000000000000000000000000000000000000000000000000000000008152600401620003449062000ae9565b60405180910390fd5b60008054906101000a900473ffffffffffffffffffffffffffffffffffffffff1673ffffffffffffffffffffffffffffffffffffffff168273ffffffffffffffffffffffffffffffffffffffff1603620003de576040517f08c379a0000000000000000000000000000000000000000000000000000000008152600401620003d59062000b5b565b60405180910390fd5b6001829080600181540180825580915050600190039060005260206000200160009091909190916101000a81548173ffffffffffffffffffffffffffffffffffffffff021916908373ffffffffffffffffffffffffffffffffffffffff1602179055506001600260008473ffffffffffffffffffffffffffffffffffffffff1673ffffffffffffffffffffffffffffffffffffffff16815260200190815260200160002060006101000a81548160ff02191690831515021790555060019050919050565b6000604051905090565b600080fd5b600080fd5b600080fd5b6000601f19601f8301169050919050565b7f4e487b7100000000000000000000000000000000000000000000000000000000600052604160045260246000fd5b6200050682620004bb565b810181811067ffffffffffffffff82111715620005285762000527620004cc565b5b80604052505050565b60006200053d620004a2565b90506200054b8282620004fb565b919050565b600067ffffffffffffffff8211156200056e576200056d620004cc565b5b602082029050602081019050919050565b600080fd5b600073ffffffffffffffffffffffffffffffffffffffff82169050919050565b6000620005b18262000584565b9050919050565b620005c381620005a4565b8114620005cf57600080fd5b50565b600081519050620005e381620005b8565b92915050565b600062000600620005fa8462000550565b62000531565b905080838252602082019050602084028301858111156200062657620006256200057f565b5b835b818110156200065357806200063e8882620005d2565b84526020840193505060208101905062000628565b5050509392505050565b600082601f830112620006755762000674620004b6565b5b815162000687848260208601620005e9565b91505092915050565b6000819050919050565b620006a58162000690565b8114620006b157600080fd5b50565b600081519050620006c5816200069a565b92915050565b60008060408385031215620006e557620006e4620004ac565b5b600083015167ffffffffffffffff811115620007065762000705620004b1565b5b62000714858286016200065d565b92505060206200072785828601620006b4565b9150509250929050565b600082825260208201905092915050565b7f726571756972656420766f746573206578636565647320677561726469616e7360008201527f206c656e67746800000000000000000000000000000000000000000000000000602082015250565b6000620007a060278362000731565b9150620007ad8262000742565b604082019050919050565b60006020820190508181036000830152620007d38162000791565b9050919050565b7f726571756972656420766f746573206d7573742062652067726561746572207460008201527f68616e207a65726f000000000000000000000000000000000000000000000000602082015250565b60006200083860288362000731565b91506200084582620007da565b604082019050919050565b600060208201905081810360008301526200086b8162000829565b9050919050565b7f4e487b7100000000000000000000000000000000000000000000000000000000600052603260045260246000fd5b7f4e487b7100000000000000000000000000000000000000000000000000000000600052601160045260246000fd5b6000620008dd8262000690565b91507fffffffffffffffffffffffffffffffffffffffffffffffffffffffffffffffff8203620009125762000911620008a1565b5b600182019050919050565b7f63616c6c6572206973206e6f74206f776e657200000000000000000000000000600082015250565b60006200095560138362000731565b915062000962826200091d565b602082019050919050565b60006020820190508181036000830152620009888162000946565b9050919050565b7f77616c6c657420697320696e207265636f76657279206d6f6465000000000000600082015250565b6000620009c7601a8362000731565b9150620009d4826200098f565b602082019050919050565b60006020820190508181036000830152620009fa81620009b8565b9050919050565b7f6475706c696361746520677561726469616e0000000000000000000000000000600082015250565b600062000a3960128362000731565b915062000a468262000a01565b602082019050919050565b6000602082019050818103600083015262000a6c8162000a2a565b9050919050565b7f677561726469616e2063616e206e6f7420626520746865207a65726f2061646460008201527f7265737300000000000000000000000000000000000000000000000000000000602082015250565b600062000ad160248362000731565b915062000ade8262000a73565b604082019050919050565b6000602082019050818103600083015262000b048162000ac2565b9050919050565b7f6f776e65722063616e206e6f74206265206120677561726469616e0000000000600082015250565b600062000b43601b8362000731565b915062000b508262000b0b565b602082019050919050565b6000602082019050818103600083015262000b768162000b34565b9050919050565b6134098062000b8d6000396000f3fe60806040526004361061012a5760003560e01c806383b40cc9116100ab578063b187bd261161006f578063b187bd2614610444578063bd31a4d81461046f578063c4d9dcaf1461049a578063c77a16ed146104c3578063d0e30db0146104da578063f05151df146104e45761012a565b806383b40cc9146103355780638da5cb5b146103725780639851a3981461039d578063a079e2a1146103c8578063a526d83b146104075761012a565b80632ccb1b30116100f25780632ccb1b301461022a57806347af99571461026757806357e685bc1461027e5780635fc489a7146102bb57806371404156146102f85761012a565b8063057f54331461012f5780630665f04b1461016c5780630ba234d6146101975780630c68ba21146101c257806312065fe0146101ff575b600080fd5b34801561013b57600080fd5b5061015660048036038101906101519190612436565b61050f565b604051610163919061247e565b60405180910390f35b34801561017857600080fd5b50610181610726565b60405161018e9190612557565b60405180910390f35b3480156101a357600080fd5b506101ac6107b4565b6040516101b9919061247e565b60405180910390f35b3480156101ce57600080fd5b506101e960048036038101906101e49190612436565b610901565b6040516101f6919061247e565b60405180910390f35b34801561020b57600080fd5b50610214610921565b6040516102219190612592565b60405180910390f35b34801561023657600080fd5b50610251600480360381019061024c91906125d9565b610929565b60405161025e919061247e565b60405180910390f35b34801561027357600080fd5b5061027c610b5b565b005b34801561028a57600080fd5b506102a560048036038101906102a09190612436565b610c56565b6040516102b2919061247e565b60405180910390f35b3480156102c757600080fd5b506102e260048036038101906102dd919061267e565b610dcc565b6040516102ef919061247e565b60405180910390f35b34801561030457600080fd5b5061031f600480360381019061031a9190612436565b611381565b60405161032c919061247e565b60405180910390f35b34801561034157600080fd5b5061035c600480360381019061035791906126de565b61161e565b604051610369919061247e565b60405180910390f35b34801561037e57600080fd5b50610387611a34565b604051610394919061272d565b60405180910390f35b3480156103a957600080fd5b506103b2611a58565b6040516103bf9190612592565b60405180910390f35b3480156103d457600080fd5b506103ef60048036038101906103ea9190612436565b611a5e565b6040516103fe93929190612748565b60405180910390f35b34801561041357600080fd5b5061042e60048036038101906104299190612436565b611ab5565b60405161043b919061247e565b60405180910390f35b34801561045057600080fd5b50610459611de4565b604051610466919061247e565b60405180910390f35b34801561047b57600080fd5b50610484611df7565b6040516104919190612592565b60405180910390f35b3480156104a657600080fd5b506104c160048036038101906104bc919061277f565b611dfd565b005b3480156104cf57600080fd5b506104d8611fb4565b005b6104e26120ae565b005b3480156104f057600080fd5b506104f96120fe565b604051610506919061247e565b60405180910390f35b6000600260003373ffffffffffffffffffffffffffffffffffffffff1673ffffffffffffffffffffffffffffffffffffffff16815260200190815260200160002060009054906101000a900460ff1661059d576040517f08c379a000000000000000000000000000000000000000000000000000000000815260040161059490612809565b60405180910390fd5b600560009054906101000a900460ff16156105ed576040517f08c379a00000000000000000000000000000000000000000000000000000000081526004016105e490612875565b60405180910390fd5b600073ffffffffffffffffffffffffffffffffffffffff168273ffffffffffffffffffffffffffffffffffffffff160361065c576040517f08c379a0000000000000000000000000000000000000000000000000000000008152600401610653906128e1565b60405180910390fd5b6001600560006101000a81548160ff02191690831515021790555060046000815461068690612930565b919050819055506106cc3360405180606001604052808573ffffffffffffffffffffffffffffffffffffffff168152602001600454815260200160001515815250612111565b6004543373ffffffffffffffffffffffffffffffffffffffff167fe290ea2cc3cfeb5114f992dc8be9e503de30042c13b9298644a2679b09e17a0484604051610715919061272d565b60405180910390a360019050919050565b606060018054806020026020016040519081016040528092919081815260200182805480156107aa57602002820191906000526020600020905b8160009054906101000a900473ffffffffffffffffffffffffffffffffffffffff1673ffffffffffffffffffffffffffffffffffffffff1681526020019060010190808311610760575b5050505050905090565b60008060009054906101000a900473ffffffffffffffffffffffffffffffffffffffff1673ffffffffffffffffffffffffffffffffffffffff163373ffffffffffffffffffffffffffffffffffffffff1614610845576040517f08c379a000000000000000000000000000000000000000000000000000000000815260040161083c906129c4565b60405180910390fd5b600560009054906101000a900460ff16610894576040517f08c379a000000000000000000000000000000000000000000000000000000000815260040161088b90612a30565b60405180910390fd5b6000600560006101000a81548160ff021916908315150217905550600060045490506004600081546108c590612930565b91905081905550807f02019f620969ef34023e1048f0b0f0e1c337f94acda5cfad6aaceb569896745560405160405180910390a2600191505090565b60026020528060005260406000206000915054906101000a900460ff1681565b600047905090565b60008060009054906101000a900473ffffffffffffffffffffffffffffffffffffffff1673ffffffffffffffffffffffffffffffffffffffff163373ffffffffffffffffffffffffffffffffffffffff16146109ba576040517f08c379a00000000000000000000000000000000000000000000000000000000081526004016109b1906129c4565b60405180910390fd5b600560019054906101000a900460ff1615610a0a576040517f08c379a0000000000000000000000000000000000000000000000000000000008152600401610a0190612a9c565b60405180910390fd5b600073ffffffffffffffffffffffffffffffffffffffff168373ffffffffffffffffffffffffffffffffffffffff1603610a79576040517f08c379a0000000000000000000000000000000000000000000000000000000008152600401610a7090612b2e565b60405180910390fd5b47821115610abc576040517f08c379a0000000000000000000000000000000000000000000000000000000008152600401610ab390612b9a565b60405180910390fd5b8273ffffffffffffffffffffffffffffffffffffffff166108fc839081150290604051600060405180830381858888f19350505050158015610b02573d6000803e3d6000fd5b508273ffffffffffffffffffffffffffffffffffffffff167f69ca02dd4edd7bf0a4abb9ed3b7af3f14778db5d61921c7dc7cd545266326de283604051610b499190612592565b60405180910390a26001905092915050565b60008054906101000a900473ffffffffffffffffffffffffffffffffffffffff1673ffffffffffffffffffffffffffffffffffffffff163373ffffffffffffffffffffffffffffffffffffffff1614610be9576040517f08c379a0000000000000000000000000000000000000000000000000000000008152600401610be0906129c4565b60405180910390fd5b600560019054906101000a900460ff1615610c39576040517f08c379a0000000000000000000000000000000000000000000000000000000008152600401610c3090612a9c565b60405180910390fd5b6001600560016101000a81548160ff021916908315150217905550565b6000600260003373ffffffffffffffffffffffffffffffffffffffff1673ffffffffffffffffffffffffffffffffffffffff16815260200190815260200160002060009054906101000a900460ff16610ce4576040517f08c379a0000000000000000000000000000000000000000000000000000000008152600401610cdb90612809565b60405180910390fd5b600560009054906101000a900460ff16610d33576040517f08c379a0000000000000000000000000000000000000000000000000000000008152600401610d2a90612a30565b60405180910390fd5b610d723360405180606001604052808573ffffffffffffffffffffffffffffffffffffffff168152602001600454815260200160001515815250612111565b6004543373ffffffffffffffffffffffffffffffffffffffff167f7a0b940199ff58e943823fe8c0e916df112be357049d8105a7e83cf9a4000e4a84604051610dbb919061272d565b60405180910390a360019050919050565b6000600260003373ffffffffffffffffffffffffffffffffffffffff1673ffffffffffffffffffffffffffffffffffffffff16815260200190815260200160002060009054906101000a900460ff16610e5a576040517f08c379a0000000000000000000000000000000000000000000000000000000008152600401610e5190612809565b60405180910390fd5b600560009054906101000a900460ff16610ea9576040517f08c379a0000000000000000000000000000000000000000000000000000000008152600401610ea090612a30565b60405180910390fd5b600073ffffffffffffffffffffffffffffffffffffffff168473ffffffffffffffffffffffffffffffffffffffff1603610f18576040517f08c379a0000000000000000000000000000000000000000000000000000000008152600401610f0f906128e1565b60405180910390fd5b600260008573ffffffffffffffffffffffffffffffffffffffff1673ffffffffffffffffffffffffffffffffffffffff16815260200190815260200160002060009054906101000a900460ff1615610fa5576040517f08c379a0000000000000000000000000000000000000000000000000000000008152600401610f9c90612c06565b60405180910390fd5b600354838390501015610fed576040517f08c379a0000000000000000000000000000000000000000000000000000000008152600401610fe490612c98565b60405180910390fd5b60005b838390508110156112805760006006600086868581811061101457611013612cb8565b5b90506020020160208101906110299190612436565b73ffffffffffffffffffffffffffffffffffffffff1673ffffffffffffffffffffffffffffffffffffffff1681526020019081526020016000206040518060600160405290816000820160009054906101000a900473ffffffffffffffffffffffffffffffffffffffff1673ffffffffffffffffffffffffffffffffffffffff1673ffffffffffffffffffffffffffffffffffffffff168152602001600182015481526020016002820160009054906101000a900460ff1615151515815250509050600454816020015114611133576040517f08c379a000000000000000000000000000000000000000000000000000000000815260040161112a90612d33565b60405180910390fd5b8573ffffffffffffffffffffffffffffffffffffffff16816000015173ffffffffffffffffffffffffffffffffffffffff16146111a5576040517f08c379a000000000000000000000000000000000000000000000000000000000815260040161119c90612d9f565b60405180910390fd5b8060400151156111ea576040517f08c379a00000000000000000000000000000000000000000000000000000000081526004016111e190612e0b565b60405180910390fd5b60016006600087878681811061120357611202612cb8565b5b90506020020160208101906112189190612436565b73ffffffffffffffffffffffffffffffffffffffff1673ffffffffffffffffffffffffffffffffffffffff16815260200190815260200160002060020160006101000a81548160ff02191690831515021790555050808061127890612930565b915050610ff0565b506000600560006101000a81548160ff02191690831515021790555060008060009054906101000a900473ffffffffffffffffffffffffffffffffffffffff169050846000806101000a81548173ffffffffffffffffffffffffffffffffffffffff021916908373ffffffffffffffffffffffffffffffffffffffff1602179055506004543373ffffffffffffffffffffffffffffffffffffffff167f049e4801ce3a7998a857fb11a89d2971d4362a3555498cf753a7e84b2f0c5b298360008054906101000a900473ffffffffffffffffffffffffffffffffffffffff1660405161136d929190612e2b565b60405180910390a360019150509392505050565b60008060009054906101000a900473ffffffffffffffffffffffffffffffffffffffff1673ffffffffffffffffffffffffffffffffffffffff163373ffffffffffffffffffffffffffffffffffffffff1614611412576040517f08c379a0000000000000000000000000000000000000000000000000000000008152600401611409906129c4565b60405180910390fd5b600560009054906101000a900460ff1615611462576040517f08c379a000000000000000000000000000000000000000000000000000000000815260040161145990612875565b60405180910390fd5b600073ffffffffffffffffffffffffffffffffffffffff168273ffffffffffffffffffffffffffffffffffffffff16036114d1576040517f08c379a00000000000000000000000000000000000000000000000000000000081526004016114c890612ec6565b60405180910390fd5b600260008373ffffffffffffffffffffffffffffffffffffffff1673ffffffffffffffffffffffffffffffffffffffff16815260200190815260200160002060009054906101000a900460ff1661155d576040517f08c379a000000000000000000000000000000000000000000000000000000000815260040161155490612f32565b60405180910390fd5b600354600180805490506115719190612f52565b10156115b2576040517f08c379a00000000000000000000000000000000000000000000000000000000081526004016115a990612ff8565b60405180910390fd5b6115bd6001836121c9565b6000600260008473ffffffffffffffffffffffffffffffffffffffff1673ffffffffffffffffffffffffffffffffffffffff16815260200190815260200160002060006101000a81548160ff02191690831515021790555060019050919050565b60008060009054906101000a900473ffffffffffffffffffffffffffffffffffffffff1673ffffffffffffffffffffffffffffffffffffffff163373ffffffffffffffffffffffffffffffffffffffff16146116af576040517f08c379a00000000000000000000000000000000000000000000000000000000081526004016116a6906129c4565b60405180910390fd5b600560009054906101000a900460ff16156116ff576040517f08c379a00000000000000000000000000000000000000000000000000000000081526004016116f690612875565b60405180910390fd5b600260008473ffffffffffffffffffffffffffffffffffffffff1673ffffffffffffffffffffffffffffffffffffffff16815260200190815260200160002060009054906101000a900460ff1661178b576040517f08c379a000000000000000000000000000000000000000000000000000000000815260040161178290612f32565b60405180910390fd5b600073ffffffffffffffffffffffffffffffffffffffff168273ffffffffffffffffffffffffffffffffffffffff16036117fa576040517f08c379a00000000000000000000000000000000000000000000000000000000081526004016117f19061308a565b60405180910390fd5b60008054906101000a900473ffffffffffffffffffffffffffffffffffffffff1673ffffffffffffffffffffffffffffffffffffffff168273ffffffffffffffffffffffffffffffffffffffff1603611888576040517f08c379a000000000000000000000000000000000000000000000000000000000815260040161187f906130f6565b60405180910390fd5b600061191a600180548060200260200160405190810160405280929190818152602001828054801561190f57602002820191906000526020600020905b8160009054906101000a900473ffffffffffffffffffffffffffffffffffffffff1673ffffffffffffffffffffffffffffffffffffffff16815260200190600101908083116118c5575b505050505085612350565b9050826001828154811061193157611930612cb8565b5b9060005260206000200160006101000a81548173ffffffffffffffffffffffffffffffffffffffff021916908373ffffffffffffffffffffffffffffffffffffffff1602179055506000600260008673ffffffffffffffffffffffffffffffffffffffff1673ffffffffffffffffffffffffffffffffffffffff16815260200190815260200160002060006101000a81548160ff0219169083151502179055506001600260008573ffffffffffffffffffffffffffffffffffffffff1673ffffffffffffffffffffffffffffffffffffffff16815260200190815260200160002060006101000a81548160ff021916908315150217905550600191505092915050565b60008054906101000a900473ffffffffffffffffffffffffffffffffffffffff1681565b60045481565b60066020528060005260406000206000915090508060000160009054906101000a900473ffffffffffffffffffffffffffffffffffffffff16908060010154908060020160009054906101000a900460ff16905083565b60008060009054906101000a900473ffffffffffffffffffffffffffffffffffffffff1673ffffffffffffffffffffffffffffffffffffffff163373ffffffffffffffffffffffffffffffffffffffff1614611b46576040517f08c379a0000000000000000000000000000000000000000000000000000000008152600401611b3d906129c4565b60405180910390fd5b600560009054906101000a900460ff1615611b96576040517f08c379a0000000000000000000000000000000000000000000000000000000008152600401611b8d90612875565b60405180910390fd5b600260008373ffffffffffffffffffffffffffffffffffffffff1673ffffffffffffffffffffffffffffffffffffffff16815260200190815260200160002060009054906101000a900460ff1615611c23576040517f08c379a0000000000000000000000000000000000000000000000000000000008152600401611c1a90612e0b565b60405180910390fd5b600073ffffffffffffffffffffffffffffffffffffffff168273ffffffffffffffffffffffffffffffffffffffff1603611c92576040517f08c379a0000000000000000000000000000000000000000000000000000000008152600401611c899061308a565b60405180910390fd5b60008054906101000a900473ffffffffffffffffffffffffffffffffffffffff1673ffffffffffffffffffffffffffffffffffffffff168273ffffffffffffffffffffffffffffffffffffffff1603611d20576040517f08c379a0000000000000000000000000000000000000000000000000000000008152600401611d1790613162565b60405180910390fd5b6001829080600181540180825580915050600190039060005260206000200160009091909190916101000a81548173ffffffffffffffffffffffffffffffffffffffff021916908373ffffffffffffffffffffffffffffffffffffffff1602179055506001600260008473ffffffffffffffffffffffffffffffffffffffff1673ffffffffffffffffffffffffffffffffffffffff16815260200190815260200160002060006101000a81548160ff02191690831515021790555060019050919050565b600560019054906101000a900460ff1681565b60035481565b60008054906101000a900473ffffffffffffffffffffffffffffffffffffffff1673ffffffffffffffffffffffffffffffffffffffff163373ffffffffffffffffffffffffffffffffffffffff1614611e8b576040517f08c379a0000000000000000000000000000000000000000000000000000000008152600401611e82906129c4565b60405180910390fd5b600560009054906101000a900460ff1615611edb576040517f08c379a0000000000000000000000000000000000000000000000000000000008152600401611ed290612875565b60405180910390fd5b60008111611f1e576040517f08c379a0000000000000000000000000000000000000000000000000000000008152600401611f15906131f4565b60405180910390fd5b600180549050811115611f66576040517f08c379a0000000000000000000000000000000000000000000000000000000008152600401611f5d90613286565b60405180910390fd5b6003548103611faa576040517f08c379a0000000000000000000000000000000000000000000000000000000008152600401611fa190613318565b60405180910390fd5b8060038190555050565b60008054906101000a900473ffffffffffffffffffffffffffffffffffffffff1673ffffffffffffffffffffffffffffffffffffffff163373ffffffffffffffffffffffffffffffffffffffff1614612042576040517f08c379a0000000000000000000000000000000000000000000000000000000008152600401612039906129c4565b60405180910390fd5b600560019054906101000a900460ff16612091576040517f08c379a000000000000000000000000000000000000000000000000000000000815260040161208890613384565b60405180910390fd5b6000600560016101000a81548160ff021916908315150217905550565b3373ffffffffffffffffffffffffffffffffffffffff167fe1fffcc4923d04b559f4d29a8bfc6cda04eb5b0d3c460751c2402c5c5cc9109c346040516120f49190612592565b60405180910390a2565b600560009054906101000a900460ff1681565b80600660008473ffffffffffffffffffffffffffffffffffffffff1673ffffffffffffffffffffffffffffffffffffffff16815260200190815260200160002060008201518160000160006101000a81548173ffffffffffffffffffffffffffffffffffffffff021916908373ffffffffffffffffffffffffffffffffffffffff1602179055506020820151816001015560408201518160020160006101000a81548160ff0219169083151502179055509050505050565b600061225a8380548060200260200160405190810160405280929190818152602001828054801561224f57602002820191906000526020600020905b8160009054906101000a900473ffffffffffffffffffffffffffffffffffffffff1673ffffffffffffffffffffffffffffffffffffffff1681526020019060010190808311612205575b505050505083612350565b9050826001848054905061226e9190612f52565b8154811061227f5761227e612cb8565b5b9060005260206000200160009054906101000a900473ffffffffffffffffffffffffffffffffffffffff168382815481106122bd576122bc612cb8565b5b9060005260206000200160006101000a81548173ffffffffffffffffffffffffffffffffffffffff021916908373ffffffffffffffffffffffffffffffffffffffff16021790555082805480612316576123156133a4565b5b6001900381819060005260206000200160006101000a81549073ffffffffffffffffffffffffffffffffffffffff02191690559055505050565b600080600090505b83518110156123c7578273ffffffffffffffffffffffffffffffffffffffff1684828151811061238b5761238a612cb8565b5b602002602001015173ffffffffffffffffffffffffffffffffffffffff16036123b6578091506123c7565b806123c090612930565b9050612358565b5092915050565b600080fd5b600080fd5b600073ffffffffffffffffffffffffffffffffffffffff82169050919050565b6000612403826123d8565b9050919050565b612413816123f8565b811461241e57600080fd5b50565b6000813590506124308161240a565b92915050565b60006020828403121561244c5761244b6123ce565b5b600061245a84828501612421565b91505092915050565b60008115159050919050565b61247881612463565b82525050565b6000602082019050612493600083018461246f565b92915050565b600081519050919050565b600082825260208201905092915050565b6000819050602082019050919050565b6124ce816123f8565b82525050565b60006124e083836124c5565b60208301905092915050565b6000602082019050919050565b600061250482612499565b61250e81856124a4565b9350612519836124b5565b8060005b8381101561254a57815161253188826124d4565b975061253c836124ec565b92505060018101905061251d565b5085935050505092915050565b6000602082019050818103600083015261257181846124f9565b905092915050565b6000819050919050565b61258c81612579565b82525050565b60006020820190506125a76000830184612583565b92915050565b6125b681612579565b81146125c157600080fd5b50565b6000813590506125d3816125ad565b92915050565b600080604083850312156125f0576125ef6123ce565b5b60006125fe85828601612421565b925050602061260f858286016125c4565b9150509250929050565b600080fd5b600080fd5b600080fd5b60008083601f84011261263e5761263d612619565b5b8235905067ffffffffffffffff81111561265b5761265a61261e565b5b60208301915083602082028301111561267757612676612623565b5b9250929050565b600080600060408486031215612697576126966123ce565b5b60006126a586828701612421565b935050602084013567ffffffffffffffff8111156126c6576126c56123d3565b5b6126d286828701612628565b92509250509250925092565b600080604083850312156126f5576126f46123ce565b5b600061270385828601612421565b925050602061271485828601612421565b9150509250929050565b612727816123f8565b82525050565b6000602082019050612742600083018461271e565b92915050565b600060608201905061275d600083018661271e565b61276a6020830185612583565b612777604083018461246f565b949350505050565b600060208284031215612795576127946123ce565b5b60006127a3848285016125c4565b91505092915050565b600082825260208201905092915050565b7f63616c6c6572206973206e6f7420677561726469616e00000000000000000000600082015250565b60006127f36016836127ac565b91506127fe826127bd565b602082019050919050565b60006020820190508181036000830152612822816127e6565b9050919050565b7f77616c6c657420697320696e207265636f76657279206d6f6465000000000000600082015250565b600061285f601a836127ac565b915061286a82612829565b602082019050919050565b6000602082019050818103600083015261288e81612852565b9050919050565b7f7a65726f206164647265737320696e76616c6964000000000000000000000000600082015250565b60006128cb6014836127ac565b91506128d682612895565b602082019050919050565b600060208201905081810360008301526128fa816128be565b9050919050565b7f4e487b7100000000000000000000000000000000000000000000000000000000600052601160045260246000fd5b600061293b82612579565b91507fffffffffffffffffffffffffffffffffffffffffffffffffffffffffffffffff820361296d5761296c612901565b5b600182019050919050565b7f63616c6c6572206973206e6f74206f776e657200000000000000000000000000600082015250565b60006129ae6013836127ac565b91506129b982612978565b602082019050919050565b600060208201905081810360008301526129dd816129a1565b9050919050565b7f77616c6c6574206973206e6f7420696e207265636f76657279206d6f64650000600082015250565b6000612a1a601e836127ac565b9150612a25826129e4565b602082019050919050565b60006020820190508181036000830152612a4981612a0d565b9050919050565b7f7472616e73666572732061726520706175736564000000000000000000000000600082015250565b6000612a866014836127ac565b9150612a9182612a50565b602082019050919050565b60006020820190508181036000830152612ab581612a79565b9050919050565b7f72656365697665722063616e206e6f7420626520746865207a65726f2061646460008201527f7265737300000000000000000000000000000000000000000000000000000000602082015250565b6000612b186024836127ac565b9150612b2382612abc565b604082019050919050565b60006020820190508181036000830152612b4781612b0b565b9050919050565b7f696e73756666696369656e742062616c616e6365000000000000000000000000600082015250565b6000612b846014836127ac565b9150612b8f82612b4e565b602082019050919050565b60006020820190508181036000830152612bb381612b77565b9050919050565b7f63616e6469646174652063616e206e6f74206265206120677561726469616e00600082015250565b6000612bf0601f836127ac565b9150612bfb82612bba565b602082019050919050565b60006020820190508181036000830152612c1f81612be3565b9050919050565b7f677561726469616e73206c657373207468616e20726571756972656420766f7460008201527f6573000000000000000000000000000000000000000000000000000000000000602082015250565b6000612c826022836127ac565b9150612c8d82612c26565b604082019050919050565b60006020820190508181036000830152612cb181612c75565b9050919050565b7f4e487b7100000000000000000000000000000000000000000000000000000000600052603260045260246000fd5b7f726f756e64206d69736d61746368000000000000000000000000000000000000600082015250565b6000612d1d600e836127ac565b9150612d2882612ce7565b602082019050919050565b60006020820190508181036000830152612d4c81612d10565b9050919050565b7f64697361677265656d656e74206f6e206e6577206f776e657200000000000000600082015250565b6000612d896019836127ac565b9150612d9482612d53565b602082019050919050565b60006020820190508181036000830152612db881612d7c565b9050919050565b7f6475706c696361746520677561726469616e0000000000000000000000000000600082015250565b6000612df56012836127ac565b9150612e0082612dbf565b602082019050919050565b60006020820190508181036000830152612e2481612de8565b9050919050565b6000604082019050612e40600083018561271e565b612e4d602083018461271e565b9392505050565b7f616464726573732063616e206e6f7420626520746865207a65726f206164647260008201527f6573730000000000000000000000000000000000000000000000000000000000602082015250565b6000612eb06023836127ac565b9150612ebb82612e54565b604082019050919050565b60006020820190508181036000830152612edf81612ea3565b9050919050565b7f677561726469616e20646f6573206e6f74206578697374000000000000000000600082015250565b6000612f1c6017836127ac565b9150612f2782612ee6565b602082019050919050565b60006020820190508181036000830152612f4b81612f0f565b9050919050565b6000612f5d82612579565b9150612f6883612579565b9250828203905081811115612f8057612f7f612901565b5b92915050565b7f726571756972656420766f746573206d757374206265206c657373207468616e60008201527f20746865206e756d626572206f6620677561726469616e730000000000000000602082015250565b6000612fe26038836127ac565b9150612fed82612f86565b604082019050919050565b6000602082019050818103600083015261301181612fd5565b9050919050565b7f677561726469616e2063616e206e6f7420626520746865207a65726f2061646460008201527f7265737300000000000000000000000000000000000000000000000000000000602082015250565b60006130746024836127ac565b915061307f82613018565b604082019050919050565b600060208201905081810360008301526130a381613067565b9050919050565b7f677561726469616e2063616e206e6f7420626520746865206f776e6572000000600082015250565b60006130e0601d836127ac565b91506130eb826130aa565b602082019050919050565b6000602082019050818103600083015261310f816130d3565b9050919050565b7f6f776e65722063616e206e6f74206265206120677561726469616e0000000000600082015250565b600061314c601b836127ac565b915061315782613116565b602082019050919050565b6000602082019050818103600083015261317b8161313f565b9050919050565b7f726571756972656420766f746573206d7573742062652067726561746572207460008201527f68616e207a65726f000000000000000000000000000000000000000000000000602082015250565b60006131de6028836127ac565b91506131e982613182565b604082019050919050565b6000602082019050818103600083015261320d816131d1565b9050919050565b7f726571756972656420766f7465732067726561746572207468616e207468652060008201527f6e756d626572206f6620677561726469616e7300000000000000000000000000602082015250565b60006132706033836127ac565b915061327b82613214565b604082019050919050565b6000602082019050818103600083015261329f81613263565b9050919050565b7f726571756972656420766f74657320616c72656164792068617320746861742060008201527f76616c7565000000000000000000000000000000000000000000000000000000602082015250565b60006133026025836127ac565b915061330d826132a6565b604082019050919050565b60006020820190508181036000830152613331816132f5565b9050919050565b7f7472616e736665727320617265206e6f74207061757365640000000000000000600082015250565b600061336e6018836127ac565b915061337982613338565b602082019050919050565b6000602082019050818103600083015261339d81613361565b9050919050565b7f4e487b7100000000000000000000000000000000000000000000000000000000600052603160045260246000fdfea2646970667358221220e43d3e48ca145775cfdb06bbf956f351643c36405b03ace3660b51fc9558735464736f6c63430008120033",
  "linkReferences": {},
  "deployedLinkReferences": {}
}