{
  "_format": "hh-sol-artifact-1",
  "contractName": "SmartWallet",
  "sourceName": "contracts/SmartWallet.sol",
  "abi": [
    {
      "inputs": [
        {
          "internalType": "address[]",
          "name": "_guardians",
          "type": "address[]"
        },
        {
          "internalType": "uint256",
          "name": "_requiredVotes",
          "type": "uint256"
        }
      ],
      "stateMutability": "nonpayable",
      "type": "constructor"
    },
    {
      "anonymous": false,
      "inputs": [
        {
          "indexed": true,
          "internalType": "address",
          "name": "from",
          "type": "address"
        },
        {
          "indexed": false,
          "internalType": "uint256",
          "name": "amount",
          "type": "uint256"
        }
      ],
      "name": "Deposit",
      "type": "event"
    },
    {
      "anonymous": false,
      "inputs": [
        {
          "indexed": true,
          "internalType": "uint256",
          "name": "round",
          "type": "uint256"
        }
      ],
      "name": "RecoveryCancelled",
      "type": "event"
    },
    {
      "anonymous": false,
      "inputs": [
        {
          "indexed": true,
          "internalType": "uint256",
          "name": "round",
          "type": "uint256"
        },
        {
          "indexed": true,
          "internalType": "address",
          "name": "by",
          "type": "address"
        },
        {
          "indexed": false,
          "internalType": "address",
          "name": "oldOwner",
          "type": "address"
        },
        {
          "indexed": false,
          "internalType": "address",
          "name": "newOwner",
          "type": "address"
        }
      ],
      "name": "RecoveryExecuted",
      "type": "event"
    },
    {
      "anonymous": false,
      "inputs": [
        {
          "indexed": true,
          "internalType": "uint256",
          "name": "round",
          "type": "uint256"
        },
        {
          "indexed": true,
          "internalType": "address",
          "name": "by",
          "type": "address"
        },
        {
          "indexed": false,
          "internalType": "address",
          "name": "candidate",
          "type": "address"
        }
      ],
      "name": "RecoveryInitiated",
      "type": "event"
    },
    {
      "anonymous": false,
      "inputs": [
        {
          "indexed": true,
          "internalType": "uint256",
          "name": "round",
          "type": "uint256"
        },
        {
          "indexed": true,
          "internalType": "address",
          "name": "by",
          "type": "address"
        },
        {
          "indexed": false,
          "internalType": "address",
          "name": "candidate",
          "type": "address"
        }
      ],
      "name": "RecoverySupported",
      "type": "event"
    },
    {
      "anonymous": false,
      "inputs": [
        {
          "indexed": true,
          "internalType": "address",
          "name": "to",
          "type": "address"
        },
        {
          "indexed": false,
          "internalType": "uint256",
          "name": "amount",
          "type": "uint256"
        }
      ],
      "name": "Transfer",
      "type": "event"
    },
    {
      "inputs": [
        {
          "internalType": "address",
          "name": "_guardian",
          "type": "address"
        }
      ],
      "name": "addGuardian",
      "outputs": [
        {
          "internalType": "bool",
          "name": "",
          "type": "bool"
        }
      ],
      "stateMutability": "nonpayable",
      "type": "function"
    },
    {
      "inputs": [],
      "name": "cancelRecovery",
      "outputs": [
        {
          "internalType": "bool",
          "name": "",
          "type": "bool"
        }
      ],
      "stateMutability": "nonpayable",
      "type": "function"
    },
    {
      "inputs": [
        {
          "internalType": "address",
          "name": "_oldGuardian",
          "type": "address"
        },
        {
          "internalType": "address",
          "name": "_newGuardian",
          "type": "address"
        }
      ],
      "name": "changeGuardian",
      "outputs": [
        {
          "internalType": "bool",
          "name": "",
          "type": "bool"
        }
      ],
      "stateMutability": "nonpayable",
      "type": "function"
    },
    {
      "inputs": [],
      "name": "currentRecoveryRound",
      "outputs": [
        {
          "internalType": "uint256",
          "name": "",
          "type": "uint256"
        }
      ],
      "stateMutability": "view",
      "type": "function"
    },
    {
      "inputs": [],
      "name": "deposit",
      "outputs": [],
      "stateMutability": "payable",
      "type": "function"
    },
    {
      "inputs": [
        {
          "internalType": "address",
          "name": "_candidate",
          "type": "address"
        },
        {
          "internalType": "address[]",
          "name": "_guardians",
          "type": "address[]"
        }
      ],
      "name": "executeRecovery",
      "outputs": [
        {
          "internalType": "bool",
          "name": "",
          "type": "bool"
        }
      ],
      "stateMutability": "nonpayable",
      "type": "function"
    },
    {
      "inputs": [],
      "name": "getBalance",
      "outputs": [
        {
          "internalType": "uint256",
          "name": "",
          "type": "uint256"
        }
      ],
      "stateMutability": "view",
      "type": "function"
    },
    {
      "inputs": [],
      "name": "getGuardians",
      "outputs": [
        {
          "internalType": "address[]",
          "name": "",
          "type": "address[]"
        }
      ],
      "stateMutability": "view",
      "type": "function"
    },
    {
      "inputs": [
        {
          "internalType": "address",
          "name": "",
          "type": "address"
        }
      ],
      "name": "guardianToRecovery",
      "outputs": [
        {
          "internalType": "address",
          "name": "candidate",
          "type": "address"
        },
        {
          "internalType": "uint256",
          "name": "recoveryRound",
          "type": "uint256"
        },
        {
          "internalType": "bool",
          "name": "usedInExecuteRecovery",
          "type": "bool"
        }
      ],
      "stateMutability": "view",
      "type": "function"
    },
    {
      "inputs": [],
      "name": "inRecovery",
      "outputs": [
        {
          "internalType": "bool",
          "name": "",
          "type": "bool"
        }
      ],
      "stateMutability": "view",
      "type": "function"
    },
    {
      "inputs": [
        {
          "internalType": "address",
          "name": "",
          "type": "address"
        }
      ],
      "name": "isGuardian",
      "outputs": [
        {
          "internalType": "bool",
          "name": "",
          "type": "bool"
        }
      ],
      "stateMutability": "view",
      "type": "function"
    },
    {
      "inputs": [],
      "name": "isPaused",
      "outputs": [
        {
          "internalType": "bool",
          "name": "",
          "type": "bool"
        }
      ],
      "stateMutability": "view",
      "type": "function"
    },
    {
      "inputs": [],
      "name": "owner",
      "outputs": [
        {
          "internalType": "address",
          "name": "",
          "type": "address"
        }
      ],
      "stateMutability": "view",
      "type": "function"
    },
    {
      "inputs": [],
      "name": "pauseTransfers",
      "outputs": [],
      "stateMutability": "nonpayable",
      "type": "function"
    },
    {
      "inputs": [
        {
          "internalType": "address",
          "name": "_guardian",
          "type": "address"
        }
      ],
      "name": "removeGuardian",
      "outputs": [
        {
          "internalType": "bool",
          "name": "",
          "type": "bool"
        }
      ],
      "stateMutability": "nonpayable",
      "type": "function"
    },
    {
      "inputs": [],
      "name": "requiredVotes",
      "outputs": [
        {
          "internalType": "uint256",
          "name": "",
          "type": "uint256"
        }
      ],
      "stateMutability": "view",
      "type": "function"
    },
    {
      "inputs": [],
      "name": "resumeTransfers",
      "outputs": [],
      "stateMutability": "nonpayable",
      "type": "function"
    },
    {
      "inputs": [
        {
          "internalType": "uint256",
          "name": "_requiredVotes",
          "type": "uint256"
        }
      ],
      "name": "setRequiredVotes",
      "outputs": [],
      "stateMutability": "nonpayable",
      "type": "function"
    },
    {
      "inputs": [
        {
          "internalType": "address",
          "name": "_candidate",
          "type": "address"
        }
      ],
      "name": "supportRecovery",
      "outputs": [
        {
          "internalType": "bool",
          "name": "",
          "type": "bool"
        }
      ],
      "stateMutability": "nonpayable",
      "type": "function"
    },
    {
      "inputs": [
        {
          "internalType": "address",
          "name": "_to",
          "type": "address"
        },
        {
          "internalType": "uint256",
          "name": "_amount",
          "type": "uint256"
        }
      ],
      "name": "transferTo",
      "outputs": [
        {
          "internalType": "bool",
          "name": "",
          "type": "bool"
        }
      ],
      "stateMutability": "nonpayable",
      "type": "function"
    },
    {
      "inputs": [
        {
          "internalType": "address",
          "name": "_candidate",
          "type": "address"
        }
      ],
      "name": "triggerRecovery",
      "outputs": [
        {
          "internalType": "bool",
          "name": "",
          "type": "bool"
        }
      ],
      "stateMutability": "nonpayable",
      "type": "function"
    }
  ],
  "bytecode": "0x60806040523480156200001157600080fd5b5060405162003f7a38038062003f7a8339818101604052810190620000379190620006cb565b81518111156200007e576040517f08c379a00000000000000000000000000000000000000000000000000000000081526004016200007590620007b8565b60405180910390fd5b60008111620000c4576040517f08c379a0000000000000000000000000000000000000000000000000000000008152600401620000bb9062000850565b60405180910390fd5b336000806101000a81548173ffffffffffffffffffffffffffffffffffffffff021916908373ffffffffffffffffffffffffffffffffffffffff1602179055508060038190555060005b82518110156200015b576200014683828151811062000132576200013162000872565b5b60200260200101516200016460201b60201c565b50806200015390620008d0565b90506200010e565b50505062000b7d565b60008060009054906101000a900473ffffffffffffffffffffffffffffffffffffffff1673ffffffffffffffffffffffffffffffffffffffff163373ffffffffffffffffffffffffffffffffffffffff1614620001f8576040517f08c379a0000000000000000000000000000000000000000000000000000000008152600401620001ef906200096d565b60405180910390fd5b600560009054906101000a900460ff16156200024b576040517f08c379a00000000000000000000000000000000000000000000000000000000081526004016200024290620009df565b60405180910390fd5b600260008373ffffffffffffffffffffffffffffffffffffffff1673ffffffffffffffffffffffffffffffffffffffff16815260200190815260200160002060009054906101000a900460ff1615620002db576040517f08c379a0000000000000000000000000000000000000000000000000000000008152600401620002d29062000a51565b60405180910390fd5b600073ffffffffffffffffffffffffffffffffffffffff168273ffffffffffffffffffffffffffffffffffffffff16036200034d576040517f08c379a0000000000000000000000000000000000000000000000000000000008152600401620003449062000ae9565b60405180910390fd5b60008054906101000a900473ffffffffffffffffffffffffffffffffffffffff1673ffffffffffffffffffffffffffffffffffffffff168273ffffffffffffffffffffffffffffffffffffffff1603620003de576040517f08c379a0000000000000000000000000000000000000000000000000000000008152600401620003d59062000b5b565b60405180910390fd5b6001829080600181540180825580915050600190039060005260206000200160009091909190916101000a81548173ffffffffffffffffffffffffffffffffffffffff021916908373ffffffffffffffffffffffffffffffffffffffff1602179055506001600260008473ffffffffffffffffffffffffffffffffffffffff1673ffffffffffffffffffffffffffffffffffffffff16815260200190815260200160002060006101000a81548160ff02191690831515021790555060019050919050565b6000604051905090565b600080fd5b600080fd5b600080fd5b6000601f19601f8301169050919050565b7f4e487b7100000000000000000000000000000000000000000000000000000000600052604160045260246000fd5b6200050682620004bb565b810181811067ffffffffffffffff82111715620005285762000527620004cc565b5b80604052505050565b60006200053d620004a2565b90506200054b8282620004fb565b919050565b600067ffffffffffffffff8211156200056e576200056d620004cc565b5b602082029050602081019050919050565b600080fd5b600073ffffffffffffffffffffffffffffffffffffffff82169050919050565b6000620005b18262000584565b9050919050565b620005c381620005a4565b8114620005cf57600080fd5b50565b600081519050620005e381620005b8565b92915050565b600062000600620005fa8462000550565b62000531565b905080838252602082019050602084028301858111156200062657620006256200057f565b5b835b818110156200065357806200063e8882620005d2565b84526020840193505060208101905062000628565b5050509392505050565b600082601f830112620006755762000674620004b6565b5b815162000687848260208601620005e9565b91505092915050565b6000819050919050565b620006a58162000690565b8114620006b157600080fd5b50565b600081519050620006c5816200069a565b92915050565b60008060408385031215620006e557620006e4620004ac565b5b600083015167ffffffffffffffff811115620007065762000705620004b1565b5b62000714858286016200065d565b92505060206200072785828601620006b4565b9150509250929050565b600082825260208201905092915050565b7f726571756972656420766f746573206578636565647320677561726469616e7360008201527f206c656e67746800000000000000000000000000000000000000000000000000602082015250565b6000620007a060278362000731565b9150620007ad8262000742565b604082019050919050565b60006020820190508181036000830152620007d38162000791565b9050919050565b7f726571756972656420766f746573206d7573742062652067726561746572207460008201527f68616e207a65726f000000000000000000000000000000000000000000000000602082015250565b60006200083860288362000731565b91506200084582620007da565b604082019050919050565b600060208201905081810360008301526200086b8162000829565b9050919050565b7f4e487b7100000000000000000000000000000000000000000000000000000000600052603260045260246000fd5b7f4e487b7100000000000000000000000000000000000000000000000000000000600052601160045260246000fd5b6000620008dd8262000690565b91507fffffffffffffffffffffffffffffffffffffffffffffffffffffffffffffffff8203620009125762000911620008a1565b5b600182019050919050565b7f63616c6c6572206973206e6f74206f776e657200000000000000000000000000600082015250565b60006200095560138362000731565b915062000962826200091d565b602082019050919050565b60006020820190508181036000830152620009888162000946565b9050919050565b7f77616c6c657420697320696e207265636f76657279206d6f6465000000000000600082015250565b6000620009c7601a8362000731565b9150620009d4826200098f565b602082019050919050565b60006020820190508181036000830152620009fa81620009b8565b9050919050565b7f6475706c696361746520677561726469616e0000000000000000000000000000600082015250565b600062000a3960128362000731565b915062000a468262000a01565b602082019050919050565b6000602082019050818103600083015262000a6c8162000a2a565b9050919050565b7f677561726469616e2063616e206e6f7420626520746865207a65726f2061646460008201527f7265737300000000000000000000000000000000000000000000000000000000602082015250565b600062000ad160248362000731565b915062000ade8262000a73565b604082019050919050565b6000602082019050818103600083015262000b048162000ac2565b9050919050565b7f6f776e65722063616e206e6f74206265206120677561726469616e0000000000600082015250565b600062000b43601b8362000731565b915062000b508262000b0b565b602082019050919050565b6000602082019050818103600083015262000b768162000b34565b9050919050565b6133ed8062000b8d6000396000f3fe60806040526004361061012a5760003560e01c806383b40cc9116100ab578063b187bd261161006f578063b187bd2614610444578063bd31a4d81461046f578063c4d9dcaf1461049a578063c77a16ed146104c3578063d0e30db0146104da578063f05151df146104e45761012a565b806383b40cc9146103355780638da5cb5b146103725780639851a3981461039d578063a079e2a1146103c8578063a526d83b146104075761012a565b80632ccb1b30116100f25780632ccb1b301461022a57806347af99571461026757806357e685bc1461027e5780635fc489a7146102bb57806371404156146102f85761012a565b8063057f54331461012f5780630665f04b1461016c5780630ba234d6146101975780630c68ba21146101c257806312065fe0146101ff575b600080fd5b34801561013b57600080fd5b506101566004803603810190610151919061241a565b61050f565b6040516101639190612462565b60405180910390f35b34801561017857600080fd5b50610181610726565b60405161018e919061253b565b60405180910390f35b3480156101a357600080fd5b506101ac6107b4565b6040516101b99190612462565b60405180910390f35b3480156101ce57600080fd5b506101e960048036038101906101e4919061241a565b6108e5565b6040516101f69190612462565b60405180910390f35b34801561020b57600080fd5b50610214610905565b6040516102219190612576565b60405180910390f35b34801561023657600080fd5b50610251600480360381019061024c91906125bd565b61090d565b60405161025e9190612462565b60405180910390f35b34801561027357600080fd5b5061027c610b3f565b005b34801561028a57600080fd5b506102a560048036038101906102a0919061241a565b610c3a565b6040516102b29190612462565b60405180910390f35b3480156102c757600080fd5b506102e260048036038101906102dd9190612662565b610db0565b6040516102ef9190612462565b60405180910390f35b34801561030457600080fd5b5061031f600480360381019061031a919061241a565b611365565b60405161032c9190612462565b60405180910390f35b34801561034157600080fd5b5061035c600480360381019061035791906126c2565b611602565b6040516103699190612462565b60405180910390f35b34801561037e57600080fd5b50610387611a18565b6040516103949190612711565b60405180910390f35b3480156103a957600080fd5b506103b2611a3c565b6040516103bf9190612576565b60405180910390f35b3480156103d457600080fd5b506103ef60048036038101906103ea919061241a565b611a42565b6040516103fe9392919061272c565b60405180910390f35b34801561041357600080fd5b5061042e6004803603810190610429919061241a565b611a99565b60405161043b9190612462565b60405180910390f35b34801561045057600080fd5b50610459611dc8565b6040516104669190612462565b60405180910390f35b34801561047b57600080fd5b50610484611ddb565b6040516104919190612576565b60405180910390f35b3480156104a657600080fd5b506104c160048036038101906104bc9190612763565b611de1565b005b3480156104cf57600080fd5b506104d8611f98565b005b6104e2612092565b005b3480156104f057600080fd5b506104f96120e2565b6040516105069190612462565b60405180910390f35b6000600260003373ffffffffffffffffffffffffffffffffffffffff1673ffffffffffffffffffffffffffffffffffffffff16815260200190815260200160002060009054906101000a900460ff1661059d576040517f08c379a0000000000000000000000000000000000000000000000000000000008152600401610594906127ed565b60405180910390fd5b600560009054906101000a900460ff16156105ed576040517f08c379a00000000000000000000000000000000000000000000000000000000081526004016105e490612859565b60405180910390fd5b600073ffffffffffffffffffffffffffffffffffffffff168273ffffffffffffffffffffffffffffffffffffffff160361065c576040517f08c379a0000000000000000000000000000000000000000000000000000000008152600401610653906128c5565b60405180910390fd5b6001600560006101000a81548160ff02191690831515021790555060046000815461068690612914565b919050819055506106cc3360405180606001604052808573ffffffffffffffffffffffffffffffffffffffff1681526020016004548152602001600015158152506120f5565b3373ffffffffffffffffffffffffffffffffffffffff166004547f9ed3cbb845ee6fb00ab0cc83f3b9bd6fda829a86257d64ea7d3ffda32ae64c44846040516107159190612711565b60405180910390a360019050919050565b606060018054806020026020016040519081016040528092919081815260200182805480156107aa57602002820191906000526020600020905b8160009054906101000a900473ffffffffffffffffffffffffffffffffffffffff1673ffffffffffffffffffffffffffffffffffffffff1681526020019060010190808311610760575b5050505050905090565b60008060009054906101000a900473ffffffffffffffffffffffffffffffffffffffff1673ffffffffffffffffffffffffffffffffffffffff163373ffffffffffffffffffffffffffffffffffffffff1614610845576040517f08c379a000000000000000000000000000000000000000000000000000000000815260040161083c906129a8565b60405180910390fd5b600560009054906101000a900460ff16610894576040517f08c379a000000000000000000000000000000000000000000000000000000000815260040161088b90612a14565b60405180910390fd5b6000600560006101000a81548160ff0219169083151502179055506004547f02019f620969ef34023e1048f0b0f0e1c337f94acda5cfad6aaceb569896745560405160405180910390a26001905090565b60026020528060005260406000206000915054906101000a900460ff1681565b600047905090565b60008060009054906101000a900473ffffffffffffffffffffffffffffffffffffffff1673ffffffffffffffffffffffffffffffffffffffff163373ffffffffffffffffffffffffffffffffffffffff161461099e576040517f08c379a0000000000000000000000000000000000000000000000000000000008152600401610995906129a8565b60405180910390fd5b600560019054906101000a900460ff16156109ee576040517f08c379a00000000000000000000000000000000000000000000000000000000081526004016109e590612a80565b60405180910390fd5b600073ffffffffffffffffffffffffffffffffffffffff168373ffffffffffffffffffffffffffffffffffffffff1603610a5d576040517f08c379a0000000000000000000000000000000000000000000000000000000008152600401610a5490612b12565b60405180910390fd5b47821115610aa0576040517f08c379a0000000000000000000000000000000000000000000000000000000008152600401610a9790612b7e565b60405180910390fd5b8273ffffffffffffffffffffffffffffffffffffffff166108fc839081150290604051600060405180830381858888f19350505050158015610ae6573d6000803e3d6000fd5b508273ffffffffffffffffffffffffffffffffffffffff167f69ca02dd4edd7bf0a4abb9ed3b7af3f14778db5d61921c7dc7cd545266326de283604051610b2d9190612576565b60405180910390a26001905092915050565b60008054906101000a900473ffffffffffffffffffffffffffffffffffffffff1673ffffffffffffffffffffffffffffffffffffffff163373ffffffffffffffffffffffffffffffffffffffff1614610bcd576040517f08c379a0000000000000000000000000000000000000000000000000000000008152600401610bc4906129a8565b60405180910390fd5b600560019054906101000a900460ff1615610c1d576040517f08c379a0000000000000000000000000000000000000000000000000000000008152600401610c1490612a80565b60405180910390fd5b6001600560016101000a81548160ff021916908315150217905550565b6000600260003373ffffffffffffffffffffffffffffffffffffffff1673ffffffffffffffffffffffffffffffffffffffff16815260200190815260200160002060009054906101000a900460ff16610cc8576040517f08c379a0000000000000000000000000000000000000000000000000000000008152600401610cbf906127ed565b60405180910390fd5b600560009054906101000a900460ff16610d17576040517f08c379a0000000000000000000000000000000000000000000000000000000008152600401610d0e90612a14565b60405180910390fd5b610d563360405180606001604052808573ffffffffffffffffffffffffffffffffffffffff1681526020016004548152602001600015158152506120f5565b3373ffffffffffffffffffffffffffffffffffffffff166004547ff31c88fed19ebc034978e78743a791eb49fa610b4729cb8f74f790a1850eac2984604051610d9f9190612711565b60405180910390a360019050919050565b6000600260003373ffffffffffffffffffffffffffffffffffffffff1673ffffffffffffffffffffffffffffffffffffffff16815260200190815260200160002060009054906101000a900460ff16610e3e576040517f08c379a0000000000000000000000000000000000000000000000000000000008152600401610e35906127ed565b60405180910390fd5b600560009054906101000a900460ff16610e8d576040517f08c379a0000000000000000000000000000000000000000000000000000000008152600401610e8490612a14565b60405180910390fd5b600073ffffffffffffffffffffffffffffffffffffffff168473ffffffffffffffffffffffffffffffffffffffff1603610efc576040517f08c379a0000000000000000000000000000000000000000000000000000000008152600401610ef3906128c5565b60405180910390fd5b600260008573ffffffffffffffffffffffffffffffffffffffff1673ffffffffffffffffffffffffffffffffffffffff16815260200190815260200160002060009054906101000a900460ff1615610f89576040517f08c379a0000000000000000000000000000000000000000000000000000000008152600401610f8090612bea565b60405180910390fd5b600354838390501015610fd1576040517f08c379a0000000000000000000000000000000000000000000000000000000008152600401610fc890612c7c565b60405180910390fd5b60005b8383905081101561126457600060066000868685818110610ff857610ff7612c9c565b5b905060200201602081019061100d919061241a565b73ffffffffffffffffffffffffffffffffffffffff1673ffffffffffffffffffffffffffffffffffffffff1681526020019081526020016000206040518060600160405290816000820160009054906101000a900473ffffffffffffffffffffffffffffffffffffffff1673ffffffffffffffffffffffffffffffffffffffff1673ffffffffffffffffffffffffffffffffffffffff168152602001600182015481526020016002820160009054906101000a900460ff1615151515815250509050600454816020015114611117576040517f08c379a000000000000000000000000000000000000000000000000000000000815260040161110e90612d17565b60405180910390fd5b8573ffffffffffffffffffffffffffffffffffffffff16816000015173ffffffffffffffffffffffffffffffffffffffff1614611189576040517f08c379a000000000000000000000000000000000000000000000000000000000815260040161118090612d83565b60405180910390fd5b8060400151156111ce576040517f08c379a00000000000000000000000000000000000000000000000000000000081526004016111c590612def565b60405180910390fd5b6001600660008787868181106111e7576111e6612c9c565b5b90506020020160208101906111fc919061241a565b73ffffffffffffffffffffffffffffffffffffffff1673ffffffffffffffffffffffffffffffffffffffff16815260200190815260200160002060020160006101000a81548160ff02191690831515021790555050808061125c90612914565b915050610fd4565b506000600560006101000a81548160ff02191690831515021790555060008060009054906101000a900473ffffffffffffffffffffffffffffffffffffffff169050846000806101000a81548173ffffffffffffffffffffffffffffffffffffffff021916908373ffffffffffffffffffffffffffffffffffffffff1602179055503373ffffffffffffffffffffffffffffffffffffffff166004547fbfc1823ae3dea9406316fb9ce848b654713a83ea2bf10aac3425502cbc9a77b58360008054906101000a900473ffffffffffffffffffffffffffffffffffffffff16604051611351929190612e0f565b60405180910390a360019150509392505050565b60008060009054906101000a900473ffffffffffffffffffffffffffffffffffffffff1673ffffffffffffffffffffffffffffffffffffffff163373ffffffffffffffffffffffffffffffffffffffff16146113f6576040517f08c379a00000000000000000000000000000000000000000000000000000000081526004016113ed906129a8565b60405180910390fd5b600560009054906101000a900460ff1615611446576040517f08c379a000000000000000000000000000000000000000000000000000000000815260040161143d90612859565b60405180910390fd5b600073ffffffffffffffffffffffffffffffffffffffff168273ffffffffffffffffffffffffffffffffffffffff16036114b5576040517f08c379a00000000000000000000000000000000000000000000000000000000081526004016114ac90612eaa565b60405180910390fd5b600260008373ffffffffffffffffffffffffffffffffffffffff1673ffffffffffffffffffffffffffffffffffffffff16815260200190815260200160002060009054906101000a900460ff16611541576040517f08c379a000000000000000000000000000000000000000000000000000000000815260040161153890612f16565b60405180910390fd5b600354600180805490506115559190612f36565b1015611596576040517f08c379a000000000000000000000000000000000000000000000000000000000815260040161158d90612fdc565b60405180910390fd5b6115a16001836121ad565b6000600260008473ffffffffffffffffffffffffffffffffffffffff1673ffffffffffffffffffffffffffffffffffffffff16815260200190815260200160002060006101000a81548160ff02191690831515021790555060019050919050565b60008060009054906101000a900473ffffffffffffffffffffffffffffffffffffffff1673ffffffffffffffffffffffffffffffffffffffff163373ffffffffffffffffffffffffffffffffffffffff1614611693576040517f08c379a000000000000000000000000000000000000000000000000000000000815260040161168a906129a8565b60405180910390fd5b600560009054906101000a900460ff16156116e3576040517f08c379a00000000000000000000000000000000000000000000000000000000081526004016116da90612859565b60405180910390fd5b600260008473ffffffffffffffffffffffffffffffffffffffff1673ffffffffffffffffffffffffffffffffffffffff16815260200190815260200160002060009054906101000a900460ff1661176f576040517f08c379a000000000000000000000000000000000000000000000000000000000815260040161176690612f16565b60405180910390fd5b600073ffffffffffffffffffffffffffffffffffffffff168273ffffffffffffffffffffffffffffffffffffffff16036117de576040517f08c379a00000000000000000000000000000000000000000000000000000000081526004016117d59061306e565b60405180910390fd5b60008054906101000a900473ffffffffffffffffffffffffffffffffffffffff1673ffffffffffffffffffffffffffffffffffffffff168273ffffffffffffffffffffffffffffffffffffffff160361186c576040517f08c379a0000000000000000000000000000000000000000000000000000000008152600401611863906130da565b60405180910390fd5b60006118fe60018054806020026020016040519081016040528092919081815260200182805480156118f357602002820191906000526020600020905b8160009054906101000a900473ffffffffffffffffffffffffffffffffffffffff1673ffffffffffffffffffffffffffffffffffffffff16815260200190600101908083116118a9575b505050505085612334565b9050826001828154811061191557611914612c9c565b5b9060005260206000200160006101000a81548173ffffffffffffffffffffffffffffffffffffffff021916908373ffffffffffffffffffffffffffffffffffffffff1602179055506000600260008673ffffffffffffffffffffffffffffffffffffffff1673ffffffffffffffffffffffffffffffffffffffff16815260200190815260200160002060006101000a81548160ff0219169083151502179055506001600260008573ffffffffffffffffffffffffffffffffffffffff1673ffffffffffffffffffffffffffffffffffffffff16815260200190815260200160002060006101000a81548160ff021916908315150217905550600191505092915050565b60008054906101000a900473ffffffffffffffffffffffffffffffffffffffff1681565b60045481565b60066020528060005260406000206000915090508060000160009054906101000a900473ffffffffffffffffffffffffffffffffffffffff16908060010154908060020160009054906101000a900460ff16905083565b60008060009054906101000a900473ffffffffffffffffffffffffffffffffffffffff1673ffffffffffffffffffffffffffffffffffffffff163373ffffffffffffffffffffffffffffffffffffffff1614611b2a576040517f08c379a0000000000000000000000000000000000000000000000000000000008152600401611b21906129a8565b60405180910390fd5b600560009054906101000a900460ff1615611b7a576040517f08c379a0000000000000000000000000000000000000000000000000000000008152600401611b7190612859565b60405180910390fd5b600260008373ffffffffffffffffffffffffffffffffffffffff1673ffffffffffffffffffffffffffffffffffffffff16815260200190815260200160002060009054906101000a900460ff1615611c07576040517f08c379a0000000000000000000000000000000000000000000000000000000008152600401611bfe90612def565b60405180910390fd5b600073ffffffffffffffffffffffffffffffffffffffff168273ffffffffffffffffffffffffffffffffffffffff1603611c76576040517f08c379a0000000000000000000000000000000000000000000000000000000008152600401611c6d9061306e565b60405180910390fd5b60008054906101000a900473ffffffffffffffffffffffffffffffffffffffff1673ffffffffffffffffffffffffffffffffffffffff168273ffffffffffffffffffffffffffffffffffffffff1603611d04576040517f08c379a0000000000000000000000000000000000000000000000000000000008152600401611cfb90613146565b60405180910390fd5b6001829080600181540180825580915050600190039060005260206000200160009091909190916101000a81548173ffffffffffffffffffffffffffffffffffffffff021916908373ffffffffffffffffffffffffffffffffffffffff1602179055506001600260008473ffffffffffffffffffffffffffffffffffffffff1673ffffffffffffffffffffffffffffffffffffffff16815260200190815260200160002060006101000a81548160ff02191690831515021790555060019050919050565b600560019054906101000a900460ff1681565b60035481565b60008054906101000a900473ffffffffffffffffffffffffffffffffffffffff1673ffffffffffffffffffffffffffffffffffffffff163373ffffffffffffffffffffffffffffffffffffffff1614611e6f576040517f08c379a0000000000000000000000000000000000000000000000000000000008152600401611e66906129a8565b60405180910390fd5b600560009054906101000a900460ff1615611ebf576040517f08c379a0000000000000000000000000000000000000000000000000000000008152600401611eb690612859565b60405180910390fd5b60008111611f02576040517f08c379a0000000000000000000000000000000000000000000000000000000008152600401611ef9906131d8565b60405180910390fd5b600180549050811115611f4a576040517f08c379a0000000000000000000000000000000000000000000000000000000008152600401611f419061326a565b60405180910390fd5b6003548103611f8e576040517f08c379a0000000000000000000000000000000000000000000000000000000008152600401611f85906132fc565b60405180910390fd5b8060038190555050565b60008054906101000a900473ffffffffffffffffffffffffffffffffffffffff1673ffffffffffffffffffffffffffffffffffffffff163373ffffffffffffffffffffffffffffffffffffffff1614612026576040517f08c379a000000000000000000000000000000000000000000000000000000000815260040161201d906129a8565b60405180910390fd5b600560019054906101000a900460ff16612075576040517f08c379a000000000000000000000000000000000000000000000000000000000815260040161206c90613368565b60405180910390fd5b6000600560016101000a81548160ff021916908315150217905550565b3373ffffffffffffffffffffffffffffffffffffffff167fe1fffcc4923d04b559f4d29a8bfc6cda04eb5b0d3c460751c2402c5c5cc9109c346040516120d89190612576565b60405180910390a2565b600560009054906101000a900460ff1681565b80600660008473ffffffffffffffffffffffffffffffffffffffff1673ffffffffffffffffffffffffffffffffffffffff16815260200190815260200160002060008201518160000160006101000a81548173ffffffffffffffffffffffffffffffffffffffff021916908373ffffffffffffffffffffffffffffffffffffffff1602179055506020820151816001015560408201518160020160006101000a81548160ff0219169083151502179055509050505050565b600061223e8380548060200260200160405190810160405280929190818152602001828054801561223357602002820191906000526020600020905b8160009054906101000a900473ffffffffffffffffffffffffffffffffffffffff1673ffffffffffffffffffffffffffffffffffffffff16815260200190600101908083116121e9575b505050505083612334565b905082600184805490506122529190612f36565b8154811061226357612262612c9c565b5b9060005260206000200160009054906101000a900473ffffffffffffffffffffffffffffffffffffffff168382815481106122a1576122a0612c9c565b5b9060005260206000200160006101000a81548173ffffffffffffffffffffffffffffffffffffffff021916908373ffffffffffffffffffffffffffffffffffffffff160217905550828054806122fa576122f9613388565b5b6001900381819060005260206000200160006101000a81549073ffffffffffffffffffffffffffffffffffffffff02191690559055505050565b600080600090505b83518110156123ab578273ffffffffffffffffffffffffffffffffffffffff1684828151811061236f5761236e612c9c565b5b602002602001015173ffffffffffffffffffffffffffffffffffffffff160361239a578091506123ab565b806123a490612914565b905061233c565b5092915050565b600080fd5b600080fd5b600073ffffffffffffffffffffffffffffffffffffffff82169050919050565b60006123e7826123bc565b9050919050565b6123f7816123dc565b811461240257600080fd5b50565b600081359050612414816123ee565b92915050565b6000602082840312156124305761242f6123b2565b5b600061243e84828501612405565b91505092915050565b60008115159050919050565b61245c81612447565b82525050565b60006020820190506124776000830184612453565b92915050565b600081519050919050565b600082825260208201905092915050565b6000819050602082019050919050565b6124b2816123dc565b82525050565b60006124c483836124a9565b60208301905092915050565b6000602082019050919050565b60006124e88261247d565b6124f28185612488565b93506124fd83612499565b8060005b8381101561252e57815161251588826124b8565b9750612520836124d0565b925050600181019050612501565b5085935050505092915050565b6000602082019050818103600083015261255581846124dd565b905092915050565b6000819050919050565b6125708161255d565b82525050565b600060208201905061258b6000830184612567565b92915050565b61259a8161255d565b81146125a557600080fd5b50565b6000813590506125b781612591565b92915050565b600080604083850312156125d4576125d36123b2565b5b60006125e285828601612405565b92505060206125f3858286016125a8565b9150509250929050565b600080fd5b600080fd5b600080fd5b60008083601f840112612622576126216125fd565b5b8235905067ffffffffffffffff81111561263f5761263e612602565b5b60208301915083602082028301111561265b5761265a612607565b5b9250929050565b60008060006040848603121561267b5761267a6123b2565b5b600061268986828701612405565b935050602084013567ffffffffffffffff8111156126aa576126a96123b7565b5b6126b68682870161260c565b92509250509250925092565b600080604083850312156126d9576126d86123b2565b5b60006126e785828601612405565b92505060206126f885828601612405565b9150509250929050565b61270b816123dc565b82525050565b60006020820190506127266000830184612702565b92915050565b60006060820190506127416000830186612702565b61274e6020830185612567565b61275b6040830184612453565b949350505050565b600060208284031215612779576127786123b2565b5b6000612787848285016125a8565b91505092915050565b600082825260208201905092915050565b7f63616c6c6572206973206e6f7420677561726469616e00000000000000000000600082015250565b60006127d7601683612790565b91506127e2826127a1565b602082019050919050565b60006020820190508181036000830152612806816127ca565b9050919050565b7f77616c6c657420697320696e207265636f76657279206d6f6465000000000000600082015250565b6000612843601a83612790565b915061284e8261280d565b602082019050919050565b6000602082019050818103600083015261287281612836565b9050919050565b7f7a65726f206164647265737320696e76616c6964000000000000000000000000600082015250565b60006128af601483612790565b91506128ba82612879565b602082019050919050565b600060208201905081810360008301526128de816128a2565b9050919050565b7f4e487b7100000000000000000000000000000000000000000000000000000000600052601160045260246000fd5b600061291f8261255d565b91507fffffffffffffffffffffffffffffffffffffffffffffffffffffffffffffffff8203612951576129506128e5565b5b600182019050919050565b7f63616c6c6572206973206e6f74206f776e657200000000000000000000000000600082015250565b6000612992601383612790565b915061299d8261295c565b602082019050919050565b600060208201905081810360008301526129c181612985565b9050919050565b7f77616c6c6574206973206e6f7420696e207265636f76657279206d6f64650000600082015250565b60006129fe601e83612790565b9150612a09826129c8565b602082019050919050565b60006020820190508181036000830152612a2d816129f1565b9050919050565b7f7472616e73666572732061726520706175736564000000000000000000000000600082015250565b6000612a6a601483612790565b9150612a7582612a34565b602082019050919050565b60006020820190508181036000830152612a9981612a5d565b9050919050565b7f72656365697665722063616e206e6f7420626520746865207a65726f2061646460008201527f7265737300000000000000000000000000000000000000000000000000000000602082015250565b6000612afc602483612790565b9150612b0782612aa0565b604082019050919050565b60006020820190508181036000830152612b2b81612aef565b9050919050565b7f696e73756666696369656e742062616c616e6365000000000000000000000000600082015250565b6000612b68601483612790565b9150612b7382612b32565b602082019050919050565b60006020820190508181036000830152612b9781612b5b565b9050919050565b7f63616e6469646174652063616e206e6f74206265206120677561726469616e00600082015250565b6000612bd4601f83612790565b9150612bdf82612b9e565b602082019050919050565b60006020820190508181036000830152612c0381612bc7565b9050919050565b7f677561726469616e73206c657373207468616e20726571756972656420766f7460008201527f6573000000000000000000000000000000000000000000000000000000000000602082015250565b6000612c66602283612790565b9150612c7182612c0a565b604082019050919050565b60006020820190508181036000830152612c9581612c59565b9050919050565b7f4e487b7100000000000000000000000000000000000000000000000000000000600052603260045260246000fd5b7f726f756e64206d69736d61746368000000000000000000000000000000000000600082015250565b6000612d01600e83612790565b9150612d0c82612ccb565b602082019050919050565b60006020820190508181036000830152612d3081612cf4565b9050919050565b7f64697361677265656d656e74206f6e206e6577206f776e657200000000000000600082015250565b6000612d6d601983612790565b9150612d7882612d37565b602082019050919050565b60006020820190508181036000830152612d9c81612d60565b9050919050565b7f6475706c696361746520677561726469616e0000000000000000000000000000600082015250565b6000612dd9601283612790565b9150612de482612da3565b602082019050919050565b60006020820190508181036000830152612e0881612dcc565b9050919050565b6000604082019050612e246000830185612702565b612e316020830184612702565b9392505050565b7f616464726573732063616e206e6f7420626520746865207a65726f206164647260008201527f6573730000000000000000000000000000000000000000000000000000000000602082015250565b6000612e94602383612790565b9150612e9f82612e38565b604082019050919050565b60006020820190508181036000830152612ec381612e87565b9050919050565b7f677561726469616e20646f6573206e6f74206578697374000000000000000000600082015250565b6000612f00601783612790565b9150612f0b82612eca565b602082019050919050565b60006020820190508181036000830152612f2f81612ef3565b9050919050565b6000612f418261255d565b9150612f4c8361255d565b9250828203905081811115612f6457612f636128e5565b5b92915050565b7f726571756972656420766f746573206d757374206265206c657373207468616e60008201527f20746865206e756d626572206f6620677561726469616e730000000000000000602082015250565b6000612fc6603883612790565b9150612fd182612f6a565b604082019050919050565b60006020820190508181036000830152612ff581612fb9565b9050919050565b7f677561726469616e2063616e206e6f7420626520746865207a65726f2061646460008201527f7265737300000000000000000000000000000000000000000000000000000000602082015250565b6000613058602483612790565b915061306382612ffc565b604082019050919050565b600060208201905081810360008301526130878161304b565b9050919050565b7f677561726469616e2063616e206e6f7420626520746865206f776e6572000000600082015250565b60006130c4601d83612790565b91506130cf8261308e565b602082019050919050565b600060208201905081810360008301526130f3816130b7565b9050919050565b7f6f776e65722063616e206e6f74206265206120677561726469616e0000000000600082015250565b6000613130601b83612790565b915061313b826130fa565b602082019050919050565b6000602082019050818103600083015261315f81613123565b9050919050565b7f726571756972656420766f746573206d7573742062652067726561746572207460008201527f68616e207a65726f000000000000000000000000000000000000000000000000602082015250565b60006131c2602883612790565b91506131cd82613166565b604082019050919050565b600060208201905081810360008301526131f1816131b5565b9050919050565b7f726571756972656420766f7465732067726561746572207468616e207468652060008201527f6e756d626572206f6620677561726469616e7300000000000000000000000000602082015250565b6000613254603383612790565b915061325f826131f8565b604082019050919050565b6000602082019050818103600083015261328381613247565b9050919050565b7f726571756972656420766f74657320616c72656164792068617320746861742060008201527f76616c7565000000000000000000000000000000000000000000000000000000602082015250565b60006132e6602583612790565b91506132f18261328a565b604082019050919050565b60006020820190508181036000830152613315816132d9565b9050919050565b7f7472616e736665727320617265206e6f74207061757365640000000000000000600082015250565b6000613352601883612790565b915061335d8261331c565b602082019050919050565b6000602082019050818103600083015261338181613345565b9050919050565b7f4e487b7100000000000000000000000000000000000000000000000000000000600052603160045260246000fdfea2646970667358221220bb90c1963ea2a2ea56ac24cafb2553368b87cbdd177f7e69eb7f0c74b1784ae964736f6c63430008120033",
  "linkReferences": {},
  "deployedLinkReferences": {}
}